:100000000C940D030C94B41F0C94E71F0C942A035A
:100010000C942A030C942A030C942A030C942A03AC
:100020000C942A030C942A030C942A030C942A039C
:100030000C942A030C942A030C942A030C942A038C
:100040000C9453200C942A030C942A030C942A0336
:100050000C942A030C942A030C942A030C942A036C
:100060000C942A030C942A0300000000003E5B4F0E
:100070005B3E3E6B4F6B3E1C3E7C3E1C183C7E3C08
:10008000181C577D571C1C5E7F5E1C00183C180016
:10009000FFE7C3E7FF0018241800FFE7DBE7FF30A6
:1000A000483A060E2629792926407F050507407F14
:1000B00005253F5A3CE73C5A7F3E1C1C08081C1C87
:1000C0003E7F14227F22145F5F005F5F06097F017D
:1000D0007F006689956A606060606094A2FFA29468
:1000E00008047E040810207E201008082A1C080836
:1000F0001C2A08081E101010100C1E0C1E0C303884
:100100003E3830060E3E0E06000000000000005F84
:1001100000000007000700147F147F14242A7F2AA0
:100120001223130864623649562050000807030062
:10013000001C2241000041221C002A1C7F1C2A08AE
:10014000083E080800807030000808080808000011
:1001500060600020100804023E5149453E00427F85
:10016000400072494949462141494D331814127FD4
:100170001027454545393C4A494931412111090774
:100180003649494936464949291E000014000000F5
:1001900040340000000814224114141414140041C7
:1001A00022140802015909063E415D594E7C121184
:1001B000127C7F494949363E414141227F414141BC
:1001C0003E7F494949417F090909013E4141517337
:1001D0007F0808087F00417F41002040413F017FA8
:1001E000081422417F404040407F021C027F7F0470
:1001F00008107F3E4141413E7F090909063E4151B9
:10020000215E7F09192946264949493203017F01A8
:10021000033F4040403F1F2040201F3F4038403FA9
:10022000631408146303047804036159494D4300BF
:100230007F4141410204081020004141417F0402F6
:10024000010204404040404000030708002054548D
:1002500078407F284444383844444428384444286B
:100260007F385454541800087E090218A4A49C78BE
:100270007F0804047800447D40002040403D007F1A
:100280001028440000417F40007C047804787C08FA
:100290000404783844444438FC18242418182424CE
:1002A00018FC7C08040408485454542404043F44B3
:1002B000243C4040207C1C2040201C3C4030403CE2
:1002C00044281028444C9090907C4464544C440042
:1002D00008364100000077000000413608000201A6
:1002E0000204023C2623263C1EA1A161123A404092
:1002F000207A38545455592155557941225454780F
:1003000042215554784020545579400C1E527212A7
:100310003955555559395454545939555454580030
:1003200000457C410002457D420001457C407D1234
:1003300011127DF0282528F07C5455450020545496
:100340007C547C0A097F4932494949323A44444441
:100350003A324A4848303A4141217A3A424020787C
:10036000009DA0A07D3D4242423D3D4040403D3C7D
:1003700024FF2424487E4943662B2FFC2F2BFF09A2
:1003800029F620C0887E0903205454794100004496
:100390007D413048484A32384040227A007A0A0A81
:1003A000727D0D19317D2629292F282629292926F4
:1003B00030484D4020380808080808080808382F39
:1003C00010C8ACBA2F102834FA00007B00000814C3
:1003D0002A142222142A1408AA005500AAAA55AAEF
:1003E00055AA000000FF00101010FF00141414FFA5
:1003F000001010FF00FF1010F010F0141414FC0097
:100400001414F700FF0000FF00FF1414F404FC14A0
:100410001417101F10101F101F1414141F00101099
:1004200010F0000000001F101010101F101010100E
:10043000F010000000FF101010101010101010FF2E
:1004400010000000FF140000FF00FF00001F101745
:100450000000FC04F414141710171414F404F4002E
:1004600000FF00F714141414141414F700F71414F4
:1004700014171410101F101F141414F4141010F07B
:1004800010F000001F101F0000001F14000000FCEF
:10049000140000F010F01010FF10FF141414FF14DB
:1004A0001010101F00000000F010FFFFFFFFFFF012
:1004B000F0F0F0F0FFFFFF0000000000FFFF0F0F63
:1004C0000F0F0F3844443844FC4A4A4A347E020233
:1004D0000606027E027E0263554941633844443C6D
:1004E00004407E201E2006027E020299A5E7A599FF
:1004F0001C2A492A1C4C7201724C304A4D4D303036
:1005000048784830BC625A463D3E494949007E0120
:1005100001017E2A2A2A2A2A44445F444440514A3F
:10052000444040444A51400000FF0103E080FF0086
:100530000008086B6B083612362436060F090F06C2
:10054000000018180000001010003040FF010100EA
:100550001F01011E00191D1712003C3C3C3C00000D
:100560000000000000023B047706B208ED0B270DE7
:10057000610F9911D014051639186C1A9C1CCA1EEB
:10058000F721202347256C278D29AB2BC62DDE2F85
:10059000F23203340F3617381C3A1B3C173E0D3F1E
:1005A000FF41EC43D345B64793496A4B3B4D074E59
:1005B000CD508C524653F955A5574B58E95A815C9A
:1005C000125D9C5F1E6099620C637864DC6638671C
:1005D0008D68D96A1D6B586C8B6DB66ED96FF271D0
:1005E00003720B730A740074EE75D276AD777E7861
:1005F00046790579BB7A677B097BA27C317CB77D24
:10060000327DA47E0D7E6B7EC07F0A7F4B7F827F12
:10061000AF7FD27FEB7FFA7FFF0011241FBECFEFA9
:10062000D8E0DEBFCDBF11E0A0E0B1E0E6E9FEE436
:1006300002C005900D92A433B107D9F723E0A4E3DB
:10064000B1E001C01D92A537B207E1F70E94C61DB7
:100650000C9449270C940000EF92FF920F931F9384
:10066000CF93DF93CDB7DEB729970FB6F894DEBFEF
:100670000FBECDBF7C018B0161E080E80E9470213C
:1006800061E08FEF0E94702160E080E00E947021A5
:1006900066E08FEF0E94702183E80E94C221682FDC
:1006A000646083E80E94702167E08FEF0E947021F0
:1006B00061E081E80E94702161E080E80E94702181
:1006C0006BE684E90E94702160E083E80E9470215B
:1006D00020916003309161033A8329830E949B201B
:1006E0006E837F8388879987A981BA811C966D93D1
:1006F0007D938D939C931F9783E80E94C2218D83E5
:10070000882399F161E083E80E94702182E90E94C8
:10071000C221982F9F77D7019C93881F8827881F15
:10072000F801808360E081E80E94702166E08FEF2D
:100730000E94702183E80E94C221682F6B7F83E8AA
:100740000E94702161E08FEF0E94702161E080E0E3
:100750000E94702160E08FEF0E94702160E080E8CD
:100760000E947021F1E0FD831EC00E949B206983DE
:100770007A838B839C83E0916003F091610384858D
:100780009585A685B78529813A814B815C81281B97
:10079000390B4A0B5B0BDA01C90185369105A105BE
:1007A000B10508F4A9CF8D8129960FB6F894DEBF64
:1007B0000FBECDBFDF91CF911F910F91FF90EF90B2
:1007C0000895CF92DF92EF92FF92CF93DF93CDB750
:1007D000DEB728970FB6F894DEBF0FBECDBF9E835D
:1007E0008D83A62FB0E020E03FE24AE350E00E9474
:1007F0003823DC01CB018C509E4FAF4FBF4F898314
:100800009A83AB83BC8328EEC22E23E0D22EE12C48
:10081000F12CBC01CD01A70196010E94E822AD8117
:10082000BE810E9438236D837E838F839887698180
:100830007A818B819C8120ED37E040E050E00E947E
:10084000E8228D819E81AF81B885820F931FA41FFE
:10085000B51FBC01CD01A70196010E94E822CA0183
:10086000B90128960FB6F894DEBF0FBECDBFDF9159
:10087000CF91FF90EF90DF90CF900895CF93DF93CB
:10088000CDB7DEB728970FB6F894DEBF0FBECDBF49
:100890006D837E838F839887A42FB0E020E03FE2B2
:1008A0004AE350E00E943823DC01CB018C509E4F7C
:1008B000AF4FBF4F89839A83AB83BC83A8EEB3E06D
:1008C0002D813E814F8158850E9438236D837E8320
:1008D0008F83988769817A818B819C8120ED37E0B5
:1008E00040E050E00E94E8228D819E81AF81B88572
:1008F000820F931FA41FB51F8D839E83AF83B8877C
:1009000069817A818B819C8128EE33E040E050E060
:100910000E94E8226D817E818F8198850E94E82265
:10092000CA01B90128960FB6F894DEBF0FBECDBF3D
:10093000DF91CF910895CF93DF93CDB7DEB729979D
:100940000FB6F894DEBF0FBECDBF682F616080E0A8
:100950000E94702120916003309161033A832983C2
:100960000E949B206E837F8388879987A981BA81A3
:100970001C966D937D938D939C931F9783E10E94AA
:10098000C22187708D83882359F061E08BE00E943B
:10099000702160E080E00E94702131E03D831DC045
:1009A0000E949B2069837A838B839C83E091600300
:1009B000F091610384859585A685B78529813A8163
:1009C0004B815C81281B390B4A0B5B0BDA01C90197
:1009D00085369105A105B10588F28D8129960FB65E
:1009E000F894DEBF0FBECDBFDF91CF910895292FC0
:1009F00090E002C0880F991F2A95E2F701960895AA
:100A00000F931F93009781F00197B0E0A0E050E0B2
:100A100040E08C019D010027012B022B032B39F4B0
:100A2000342F2227822B932B1F910F910895B69577
:100A3000A795979587954F5F5F4FEBCFCF93DF9348
:100A4000EC0181E00E94C22184FB992790F99883F0
:100A500083FB992790F99A8382FB992790F99983D0
:100A600086FB992790F99B83881F8827881F8C8392
:100A7000DF91CF910895E0916003F091610362E00E
:100A800080810E94411FE0916003F091610360E06A
:100A900081810E94411FE0916003F091610360E059
:100AA00080810E94571EE0916003F0916103118ADA
:100AB000128A138A148A108A148615861686178657
:100AC00016820895CF93DF9300D000D0CDB7DEB764
:100AD000462F572FBC01411588EC58076105710559
:100AE000E8F4DB01CA0127E0880F991FAA1FBB1F8A
:100AF0002A95D1F7BC01CD0124E630E040E050E07A
:100B00000E94E822B90184E40E94842181E00F90D0
:100B10000F900F900F90DF91CF91089580E0F7CF65
:100B2000811106C080E50E94C2218F5F880F089561
:100B3000813011F480E7F7CF8FEF08950F931F9363
:100B4000CF93DF938C01EB0180E50E94C2218F5F80
:100B5000880F90E09983888386E40E94C22190E008
:100B600001969D838C8368810E94E1036A877B875D
:100B70008C879D8781E50E94D8210E94F7048E838F
:100B80009F8368810E94E1036E877F87888B998BA2
:100B900081E00E94900590E09B838A8381E70E9418
:100BA000D8210E94F7049C0199878887D801139661
:100BB0008C91882331F08E819F81281B390B3987D6
:100BC00028876A81888599850E94E1036A8B7B8BDF
:100BD0008C8B9D8BDF91CF911F910F910895CF92B8
:100BE000DF92EF92FF921F93CF93DF93CDB7DEB7E3
:100BF0006F970FB6F894DEBF0FBECDBF6B017C01BF
:100C000020E2C2162EE4D206E104F10408F490C0FA
:100C1000CE0147960E941E05BE016F5F7F4FCE0139
:100C200047960E949E058F89882309F46FC08B85A3
:100C30009C85AD85BE858A5C944FAF4FBF4F298D93
:100C4000222309F468C04B855C856D857E854E54F2
:100C50005D4F6F4F7F4F440F551F661F771F840FE7
:100C6000951FA61FB71F1A8D112361F04F85588954
:100C700069897A894C565D4F6F4F7F4F840F951F5E
:100C8000A61FB71F2B8D222391F18A5D9D4FAF4F79
:100C9000BF4FC816D906EA06FB0608F449C0A701EB
:100CA0009601281B390B4A0B5B0B2C8F3D8F4E8F07
:100CB0005F8F4B816C8D7D8D8E8D9F8D0E943E044C
:100CC000462F572FCA01112321F08F819885840F59
:100CD000951F0E940005BC0181E70E948421E091DC
:100CE0006003F0916103C18AD28AE38AF48A81E0C9
:100CF0006F960FB6F894DEBF0FBECDBFDF91CF91D8
:100D00001F91FF90EF90DF90CF90089588EE98E0CC
:100D1000A0E0B0E094CF288D222309F4A4CF4B8526
:100D20005C856D857E854C565D4F6F4F7F4F97CFAD
:100D300080E0DECF0F931F93CF93DF93CDB7DEB765
:100D40006B970FB6F894DEBF0FBECDBFCE014796AE
:100D50000E941E05BE016F5F7F4FCE0147960E9425
:100D60009E058F89882309F44DC06B857C858D8510
:100D70009E856C57724F8F4F9F4F298D222309F408
:100D800046C00B851C852D853E850E541D4F2F4F6B
:100D90003F4F000F111F221F331F600F711F821F53
:100DA000931F2A8D222361F00F85188929893A899A
:100DB0000C561D4F2F4F3F4F600F711F821F931F07
:100DC0002B8D222361F00B891C892D893E890A5DB8
:100DD0001D4F2F4F3F4F600F711F821F931FE091D8
:100DE0006003F0916103618B728B838B948B6B96A4
:100DF0000FB6F894DEBF0FBECDBFDF91CF911F912C
:100E00000F91089566E37BE080E090E0B6CF288DF7
:100E1000222339F20B851C852D853E850C561D4FEE
:100E20002F4F3F4FBACF0F931F93CF93DF93CDB781
:100E3000DEB72C970FB6F894DEBF0FBECDBF082FDC
:100E4000E0916003F091610386818D7F86838FEF4F
:100E50009FEF9087878361E080810E94571E64E640
:100E600070E080E090E00E94EE20E0916003F0915D
:100E70006103118582E5818742E5638182810E9459
:100E80006921002341F089E80E94C221682F616036
:100E900089E80E9470218AE80E94C221893261F0AB
:100EA00080E02C960FB6F894DEBF0FBECDBFDF9169
:100EB000CF911F910F910895612F6F778AE80E945B
:100EC0007021E0916003F0916103412F440F41874D
:100ED000638182810E94692160E088E80E9470211C
:100EE00061E080E80E94702161E08FEF0E94702134
:100EF00060E080E00E947021009160031091610326
:100F000081E90E94C221D80150968C9361E080E073
:100F10000E94702160E08FEF0E94702160E080E805
:100F20000E94702180E60E94C221682F626180E6E3
:100F30000E94702160E270E084E40E9484216FEFDF
:100F400081E00E947021BE01695F7F4FCE0108964B
:100F50000E942C03882309F4A3CF46E050E0BE0191
:100F60006F5F7F4F80EB0E94652261E08FEF0E94F0
:100F7000702160E08FE40E9470216CE28EE40E9498
:100F8000702160E08FEF0E94702164EB86EB0E947D
:100F900070219F8191119CE0B88580E0A0E001E084
:100FA00010E0482F46954695469550E021E030E008
:100FB0002C0F3D1F240F351FF9012081682F67700A
:100FC000891710F0BA13A4C1E1E0F0E0EC0FFD1FA7
:100FD0004E0F5F1FF80102C0EE0FFF1F6A95E2F788
:100FE000BF0160952623FA0120838F5F8033C9F605
:100FF00020E046E050E0BE016F5F7F4F80EB0E9433
:101000003B2261E08FEF0E94702160E080E00E944F
:10101000702160E08FEF0E94702160E089E00E9403
:10102000702160E080E10E94702160E081E10E9417
:10103000702161E084E20E9470216FEF85E20E94DE
:10104000702160E085E70E94702161E08FEF0E94CF
:1010500070216CE28EE40E94702160E088E40E94BE
:10106000702160E280E30E94702160E08FEF0E94B7
:10107000702169E080E30E94702160E084E50E94B5
:10108000702164E081E30E94702163E082E30E94AA
:10109000702163E880E40E94702165E286E40E948A
:1010A000702160E080E60E94702160E087E20E948B
:1010B000702166E080E50E94702160E081E50E9479
:1010C000702166E982E50E94702168E086E50E9451
:1010D000702160E387E50E94702160E081E60E9454
:1010E000702160E082E60E94702160E084E60E9448
:1010F000702160E085E60E94702160EA86E60E9429
:10110000702161E08FEF0E94702162E382E20E9411
:10111000702164E187E40E9470216FEF89E40E94EE
:10112000702160E08AE40E94702160E08FEF0E94ED
:1011300070216AE08AE70E94702160E08BE70E94DC
:10114000702161E288E70E94702161E08FEF0E94C8
:10115000702164E383E20E94702160E082E40E94D7
:1011600070216FEF84E40E94702166E285E40E94A2
:10117000702165E086E40E94702160E480E40E94B2
:10118000702166E08EE00E9470216AE180E20E9498
:10119000702160E483E40E94702160E08FEF0E9480
:1011A000702163E084E30E94702164E485E30E947F
:1011B000702161E08FEF0E94702164E081E30E9462
:1011C000702169E08BE40E94702165E08CE40E944C
:1011D000702164E08DE40E94702160E08FEF0E9436
:1011E000702160E084E40E94702160E285E40E9446
:1011F000702168E087E40E94702168E288E40E9420
:10120000702160E087E60E94702164E080E70E9420
:10121000702161E081E70E9470216EEF82E70E94F9
:10122000702160E086E70E94702160E087E70E94FD
:10123000702161E08FEF0E94702161E08DE00E94DB
:10124000702160E08FEF0E94702161E080E80E94D1
:10125000702168EF81E00E94702161E08FEF0E94B1
:10126000702161E08EE80E94702161E080E00E94C0
:10127000702160E08FEF0E94702160E080E80E94A2
:10128000702164E08AE00E94702184E80E94C221FB
:10129000682F6F7E84E80E94702161E08BE00E94DD
:1012A000702100916003109161030E949A06D80199
:1012B00051966D937D938D939C93549768EE81E046
:1012C0000E947021E0916003F0916103818992890D
:1012D000A389B489BC01CD010E94EF0561E081E0E2
:1012E0000E94702180E40E949B04882309F4D8CDD9
:1012F00062E081E00E94702180E00E949B048823CC
:1013000009F4CECD68EE81E00E94702181E0C9CD64
:1013100030E002C0359527956A95E2F720FF65CE4B
:10132000AF5F63CEFF920F931F93CF93DF93CDB741
:10133000DEB76F970FB6F894DEBF0FBECDBF082F94
:10134000162FF62EF694FA94CE0147960E941E05AB
:10135000BE016F5F7F4FCE0147960E949E0501112F
:1013600071C0103109F46CC098F41C3009F466C0E7
:1013700060E31E3081F0802F6F960FB6F894DEBFC9
:101380000FBECDBFDF91CF911F910F91FF900895B8
:1013900060E5123181F787E50E94702168E086E5FB
:1013A0000E9470216F2D80E50E9470218F859889A1
:1013B000A989BA898C8F9D8FAE8FBF8F412FBC01B9
:1013C000CD010E943E04CB010E940005BC0181E5D5
:1013D0000E9484218B859C85AD85BE858C8F9D8FD9
:1013E000AE8FBF8F412FBC01CD010E943E04613002
:1013F00091E0790710F060E071E0615086E40E94AE
:101400007021E0916003F091610381899289A38941
:10141000B489BC01CD010E94EF0581E00E94C22188
:10142000182F62E081E00E94702180E00E949B04FE
:10143000612F81E00E94702101E09DCF68E1ABCF78
:1014400060E4A9CF013049F41C3009F46CC038F4D1
:101450001830A9F01A3009F450C000E08CCF1E30CB
:10146000E1F768E488E40E94702168E087E40E9464
:10147000702163E082E30E94702167E04BC060E16D
:1014800088E40E94702168E087E40E94702162E095
:1014900082E30E9470216CE080E30E94702161E091
:1014A0008FEF0E94702160E380E30E94702160E072
:1014B0008FEF0E9470216F2D80E70E9470218B8931
:1014C0009C89AD89BE898C8F9D8FAE8FBF8F412F38
:1014D000BC01CD010E943E04462F572FCA012A8D20
:1014E000222321F08F819885840F951F0E9400058B
:1014F000BC0181E70E94842184CF68E288E40E94D5
:10150000702168E087E40E94702163E082E30E941A
:10151000702169E080E30E94702161E08FEF0E94FA
:10152000702160E2C1CF68E388E40E94702168E026
:1015300087E40E94702163E082E30E94702168E0EA
:10154000E9CFCF92DF92EF92FF926B017C0161E0D5
:1015500080E80E94702161E08FEF0E94702160E0BE
:1015600080E00E947021E0916003F0916103608946
:1015700081E90E94702161E080E00E94702160E0BA
:101580008FEF0E94702160E080E80E94702162E08D
:10159000C114D104E104F10491F088EF0E94D82134
:1015A000DC01892B31F0A70196010E9438236B01E1
:1015B0007C01B701A60184E00E949D2164E080E0E7
:1015C000FF90EF90DF90CF900C9470210F931F93BA
:1015D000CF93DF938EE10E94D821D82FC92F61E0ED
:1015E0008BE00E94702100916003109161030E94C2
:1015F0009B20D8011C966D937D938D939C931F9790
:101600008D2F9C2FDF91CF911F910F910895CF9334
:10161000DF93CDB7DEB728970FB6F894DEBF0FBEC5
:10162000CDBFE0916003F0916103868181FF43C0EB
:101630000E949B2069837A838B839C83E091600363
:10164000F091610384859585A685B78529813A81C6
:101650004B815C81281B390B4A0B5B0BDA01C901FA
:1016600085369105A105B105C0F161E08BE00E94CE
:10167000702140916003509161035A8349830E9415
:101680009B206D837E838F839887A981BA811C9666
:101690006D937D938D939C931F97E0916003F091E0
:1016A00061038681982F9460968395899F5F963019
:1016B00058F4958B868128960FB6F894DEBF0FBE3E
:1016C000CDBFDF91CF910895158A8D7F8460868389
:1016D0008FEF9FEF90878783EDCF86818B7F868307
:1016E00083E10E94C2218770B1F0E0916003F09124
:1016F0006103FA83E9838681806186830E94E60A1A
:10170000A981BA8118969C938E931797E0916003F4
:10171000F0916103158AE0916003F0916103CACFF3
:10172000FC01909361038093600341856381828112
:101730000C946921CF93DF9300D000D000D0CDB7B7
:10174000DEB78D839E8381E00E941307882309F40E
:1017500042C0AD81BE8114962D913D914D915C9119
:10176000179729833A834B835C83CA01B9010E948E
:101770006205ED81FE81618580E00E949209AD8164
:10178000BE8118966C9181E00E949209ED81FE81E4
:1017900020813181A8EEB3E00E94292369837A83F6
:1017A0008B839C830E94EF05AD81BE8112968D9143
:1017B0009C919C0150E040E029833A834B835C83F9
:1017C000CA01B9010E94A10AE0916003F09161038E
:1017D00086818260868326960FB6F894DEBF0FBEA0
:1017E000CDBFDF91CF9108950F931F93CF93DF93D8
:1017F000CDB7DEB72C970FB6F894DEBF0FBECDBFC6
:10180000E0916203F0916303818110E000E088239E
:10181000D9F00E94BB208B018091620390916303F9
:101820009A838983DC0117968D919C91081B190B73
:101830000E94BB206D837E838F839887E981FA8124
:101840006783708781879287209162033091630359
:101850003A832983D90111968C91823009F485C08D
:10186000E8F481112CC00E94BB20E981FA816783D2
:101870007087818792870E949B20E0916203F0919C
:101880006303DC01CB018196A11DB11D8383948389
:10189000A583B68381E08183128206C0833009F478
:1018A00092C0843009F4A0C02C960FB6F894DEBF25
:1018B0000FBECDBFDF91CF911F910F910895C80149
:1018C0008C5B9240A981BA818531954048F0119690
:1018D0001C921197FD011382148215821682E4CFA7
:1018E00012962C9112974DE050E0421B510981E075
:1018F00090E002C0880F991F4A95E2F71B964D9120
:101900005C911C97842B952B1C969C938E931B9714
:101910002F5F12962C9312972E3080F081E08C93DB
:1019200050968C912C960FB6F894DEBF0FBECDBFAB
:10193000DF91CF911F910F910C944220013B1440F5
:1019400070F032E0E981FA8131832D3009F0ACCFBB
:1019500021E020838E7F948783878089E3CF83E093
:10196000A981BA8111968C939FCFC8018C5B92405C
:10197000E981FA818531954030F011821382148219
:101980001582168291CF22814DE050E0421B510911
:1019900081E090E002C0880F991F4A95E2F7809598
:1019A00090954385548584239523948783872F5F5F
:1019B0002283013B144010F081E0D2CF84E0E98122
:1019C000FA81818371CF0C5B124081E0053F1140A9
:1019D000B0F3A981BA8113961D921D921D921C929B
:1019E000169711961C9260CF0C5B1240053F114078
:1019F00080F782E0E981FA81818382818D3009F06C
:101A000053CF81E0808383859485A4CFCF93DF93E8
:101A100000D000D0CDB7DEB7E0916203F091630350
:101A200083819481A581B681892B8A2B8B2BE1F050
:101A30000E949B2069837A838B839C83E09162035D
:101A4000F091630383819481A581B68129813A81D4
:101A50004B815C8182179307A407B50728F4118294
:101A60001382148215821682E0916203F09163035F
:101A700080818823E9F0108211828385948593FB0D
:101A8000222720F925879C0196E0369527959A957F
:101A9000E1F72F7126878F73878764EF7BE080895A
:101AA0000F900F900F900F90DF91CF910C941A2010
:101AB0000F900F900F900F90DF91CF910895FC0140
:101AC000909363038093620364EF7BE080890C94BE
:101AD0001A20982F937090933803209140033091EF
:101AE000410340913E0350913F0380FD09C0309374
:101AF00045032093440350934303409342030895C6
:101B0000509345034093440330934303209342038F
:101B1000089580930701609306010895CF93C82F1D
:101B200048E760910701809106010E9469211092A7
:101B30003D0310923C0310923B0310923A0381E064
:101B4000809339032FEF3FEF309335032093340315
:101B50003093370320933603809365031092640318
:101B600080E890E090934103809340039093450375
:101B70008093440380E290E090933F0380933E0380
:101B80009093430380934203109238036EEA80E0FF
:101B90000E94702165ED80E00E94702160E880E085
:101BA0000E94702168EA80E00E9470216FE180E06D
:101BB0000E94702163ED80E00E94702160E080E06F
:101BC0000E94702160E480E00E9470216DE880E056
:101BD0000E94702160E1C13009F064E180E00E9460
:101BE000702160E280E00E94702160E080E00E944D
:101BF000702161EA80E00E94702168EC80E00E9420
:101C000070216AED80E00E94702162E080E00E9415
:101C1000702161E880E00E9470216FE880E00E94FE
:101C2000702169ED80E00E94702162E2C13009F00C
:101C300061EF80E00E9470216BED80E00E947021D6
:101C400060E480E00E94702164EA80E00E947021DC
:101C500066EA80E00E9470216FEA80E0CF910C94E8
:101C600070219C01CB01BA0137FD88C0409144032B
:101C700050914503241735070CF080C097FD7EC0B6
:101C80004091420350914303841795070CF076C0AE
:101C9000409138034230C1F1433009F449C041302A
:101CA00051F44091400350914103481B590BC90125
:101CB0009A01215031096130710509F443C0623045
:101CC000710509F45CC0672B09F058C0FC0197FD51
:101CD000379663E0F595E7956A95E1F7F695FE2F5F
:101CE000EE27F795E795E20FF31FEC5CFE4F9C01A2
:101CF0002770332781E090E001C0880F2A95EAF72A
:101D000080959081892339C04091400350914103CF
:101D1000FA01E21BF30B9F012150310940913E0370
:101D200050913F03FA01E81BF90BCF010197C3CF94
:101D300040913E0350913F03421B530B9C01CA014B
:101D40000197B9CFFC0197FD3796A3E0F595E7958C
:101D5000AA95E1F7F695FE2FEE27F795E795E20FA6
:101D6000F31FEC5CFE4F8770992721E030E001C043
:101D7000220F8A95EAF78081822B80830895FC01E7
:101D800097FD379643E0F595E7954A95E1F7F69587
:101D9000FE2FEE27F795E795E20FF31FEC5CFE4F61
:101DA0008770992721E030E001C0220F8A95EAF779
:101DB00080818227E2CFCF93C82F48E76091070147
:101DC000809106010E94692167EAC11101C066EA9B
:101DD00080E0CF910C94702148E7609107018091D9
:101DE00006010E94692161E280E00E94702160E0AA
:101DF00080E00E9470216FE780E00E94702162E223
:101E000080E00E94702160E080E00E94702163E029
:101E100080E00E94702121E040E052E064E371E044
:101E200080E40C943B22E4E3F1E080E092E0DF0107
:101E30009C011D9221503040E1F70895CF93DF932C
:101E4000EC01DB01CA01A90177FD5AC020913E03D4
:101E500030913F03621773070CF052C0BE01680F48
:101E6000791FD7FF03C0CB01D0E0C0E02091400331
:101E700030914103261737071CF4C9018C1B9D0BB9
:101E800018161906ECF5FD0123E0F595E7952A955E
:101E9000E1F7F695FE2FEE27F795E795EC0FFD1F7E
:101EA000EC5CFE4FA770BB2721E030E001C0220FA1
:101EB000AA95EAF7622F41305105E1F04230510511
:101EC00071F0452BE9F420958E0F9F1F8E179F0709
:101ED000B9F0DF013D9132233083FD01F7CF8E0F42
:101EE0009F1FE817F90761F0DF012D912627208356
:101EF000FD01F7CF9F01280F391FE217F30719F4EF
:101F0000DF91CF910895DF019D91962B9083FD0184
:101F1000F4CFFF920F931F93CF93DF93EC01DB017C
:101F2000BA01A90197FDA6C0809140039091410399
:101F3000C817D9070CF09EC09D01260F371FB7FFA9
:101F400003C0B901B0E0A0E080913E0390913F034F
:101F5000821793071CF4BC016A1B7B0B161617062D
:101F60000CF088C0862F9A2F96959695969520E826
:101F7000929FF0011124EC0FFD1FEC5CFE4F3A2FF5
:101F80003770F32E81F128E0231BC22FD0E08E01A1
:101F90000D5E1E4FD8019C91621708F074C0C61BDD
:101FA000D1096FEF70E002C075956795CA95E2F7A9
:101FB00096234130510561F04230510509F445C086
:101FC0004115510509F056C090953081932302C008
:101FD0003081932B9083821708F44CC0A8EFAF0D8B
:101FE0008A0FE058FF4F8830E8F04230510581F504
:101FF000DF01982F2C9120952C93A058BF4F98501B
:102000009830C0F728EF280F26952695269530E0C2
:102010002F5F3F4F3695322F222737952795E20FB6
:10202000F31F8770882331F1A82FB0E0A55FBE4F62
:102030008C9141305105D9F04230510509F1452BC1
:10204000C9F480959081892314C030819327C2CF31
:1020500091E04130510509F090E09195DF01282F82
:102060009C93A058BF4F28502830D0F7CBCF9081F9
:10207000892B8083DF91CF911F910F91FF9008955D
:1020800090818927F6CF4130510509F4A1CF423024
:102090005105D9F24115510509F0A0CF95CFDC01CA
:1020A000FB0180913803823081F0833021F181304F
:1020B000F1F48091400390914103861B970BFC0142
:1020C0003197BD01CF010C94890F8091400390910D
:1020D0004103BC016A1B7B0BDB0180913E039091A5
:1020E0003F038E1B9F0BFC013197A41BB50BBF0157
:1020F000CD010C941E0F80913E0390913F038A1BEB
:102100009B0BDC01A41BB50BDCCFDC01FB01809138
:102110003803823089F0833021F18130F1F48091ED
:10212000400390914103861B970BFC01E41BF50BC8
:10213000BD01CF010C941E0F80914003909141038B
:102140008A1B9B0BDC01119780913E0390913F030A
:10215000861B970BFC01E41BF50BBF01CD010C9412
:10216000890F80913E0390913F038A1B9B0BDC01FA
:102170001197DECF2F923F924F925F926F927F9294
:102180008F929F92AF92BF92CF92DF92EF92FF9287
:102190000F931F93CF93DF9300D000D0CDB7DEB75E
:1021A0008C017B014B835C83522E432E81E090E0B7
:1021B0005C012B813C81A21AB30AC90191958195DA
:1021C00091099C01220F331F3A8329836B817C8103
:1021D0006E0D7F1D452D542DC8010E94310EB70193
:1021E0008B819C81681B790B452D542DC8010E9461
:1021F000310E452D542DB7018B819C81800F911F8D
:102200000E94310E452D542DB701C8012B813C8110
:10221000821B930B0E94310ED12CC12C8B819C818F
:10222000C816D906BCF00F900F900F900F90DF9159
:10223000CF911F910F91FF90EF90DF90CF90BF90C3
:10224000AF909F908F907F906F905F904F903F9056
:102250002F900895B7FC0DC08B819C8101979C83C2
:102260008B8329813A812E5F3F4F3A832983A20EC7
:10227000B31E3FEFC31AD30AC601880F991F0196F8
:10228000A80EB91E3601600E711E452D542D8B808F
:102290009C808E0C9F1CB401C3010E94310E18015A
:1022A0002C183D08452D542DB401C1010E94310E5A
:1022B000452D542D47018B819C81881A990AB401C0
:1022C000C3010E94310E452D542DB401C1010E945D
:1022D000310E46018E0C9F1C452D542DB4016B8090
:1022E0007C80600E711EC3010E94310E452D542D5D
:1022F000B40118012B813C81221A330AC1010E94CA
:10230000310E47018C189D08452D542DB401C30191
:102310000E94310E452D542DB401C1010E94310E91
:102320007DCF2F923F924F925F926F927F928F92CA
:102330009F92AF92BF92CF92DF92EF92FF920F9354
:102340001F93CF93DF936C015B01EA0181E090E082
:102350004C01841A950A66247724641A750A660C5F
:10236000771CF12CE12C822F8470582E822F8270E2
:10237000482E822F8870382E2170222EEC16FD06F2
:102380009CF0DF91CF911F910F91FF90EF90DF9024
:10239000CF90BF90AF909F908F907F906F905F9005
:1023A0004F903F902F90089597FC06C0219782E0B0
:1023B000680E711C860C971C8FEFE81AF80AC7018B
:1023C000880F991F0196880E991E552091F0A8013B
:1023D000BE016A0D7B1DC6018E0D9F1D0E94310E30
:1023E000A801B5016E0D7F1DCE018C0D9D1D0E94B3
:1023F000310E442091F0A801B5016C1B7D0BC60184
:102400008E0D9F1D0E94310EA801B5016E197F0926
:10241000CE018C0D9D1D0E94310E332091F0A8013C
:10242000B5016E0D7F1DC6018C1B9D0B0E94310EE8
:10243000A801BE016A0D7B1DC6018E199F090E946D
:10244000310E222009F49ACFA801B5016E197F0937
:10245000C6018C1B9D0B0E94310EA801B5016C1B9F
:102460007D0BC6018E199F090E94310E87CF2F92D6
:102470003F924F925F926F927F928F929F92AF9214
:10248000BF92CF92DF92EF92FF920F931F93CF9361
:10249000DF9300D000D0CDB7DEB72C015B014B83BA
:1024A0005C83480181E090E06C014B815C81C41A3F
:1024B000D50A1A01319421943108220C331C10E002
:1024C00000E066246394712C522F5170598322705E
:1024D0002A834B815C8104171507BCF00F900F9085
:1024E0000F900F90DF91CF911F910F91FF90EF9080
:1024F000DF90CF90BF90AF909F908F907F906F9024
:102500005F904F903F902F900895D7FC0AC08B8129
:102510009C8101979C838B8392E0290E311CC20C15
:10252000D31C0F5F1F4FE2E06E0E711CC60CD71C50
:10253000F981FF2301F14B815C81440F551F4F5FEF
:102540005F4F480D591D9701B5018B819C81681B18
:10255000790BC201800F911F0E9485109701A40181
:10256000460D571DB501601B710B8B819C81840D3D
:10257000951D0E9485109A81992309F4AACF4B8159
:102580005C81440F551F4F5F5F4F480D591D9701E8
:10259000B501EB81FC816E1B7F0BC201801B910B8F
:1025A0000E9485109701A301480D591DB501601BBC
:1025B000710BC201EB81FC818E1B9F0B0E94851069
:1025C00088CFAF92BF92CF92DF92EF92FF920F939C
:1025D0001F93CF93DF936C015B01EA017901440FF4
:1025E000551F4F5F5F4F6C1B7D0BC6010E9485100E
:1025F00010E000E023E0AE01B501C6010E943712F1
:10260000DF91CF911F910F91FF90EF90DF90CF90CE
:10261000BF90AF9008952F923F924F925F926F922A
:102620007F928F929F92AF92BF92CF92DF92EF9262
:10263000FF920F931F93CF93DF9300D000D0CDB7BD
:10264000DEB78B839C837B016A01C90109831A83EE
:102650008901061B170B17FF03C01195019511097E
:1026600046012B813C81821A930A97FE03C0919404
:1026700081949108801691065CF43C2D2D2D6C01FF
:10268000832F922F3B812C81FC82EB82E32EF22E52
:102690002B813C81C216D3065CF43E2D2F2D7C018C
:1026A000832F922F3B812C81DC82CB82C32ED22EB2
:1026B00016012B813C81221A330A2C014E185F0827
:1026C00057FE03C0519441945108310137FE03C0B5
:1026D0003FEF631A730A75946794E816F906D4F10C
:1026E000AA24AA94BA2C2B813C81C216D306BCF42E
:1026F0000F900F900F900F90DF91CF911F910F913E
:10270000FF90EF90DF90CF90BF90AF909F908F9011
:102710007F906F905F904F903F902F9008954981E8
:102720005A816B817C81C701801691061CF0B7012C
:102730008B819C810E94310E6418750877FE04C05D
:10274000EA0CFB1C620C731C8B819C8101969C83A0
:102750008B83C9CFAA24A394B12CC5CFAF92BF92CB
:10276000CF92DF92EF92FF920F931F93CF93DF935D
:10277000EC017B015A01690198010E944F10B701D9
:102780006C0D7D1D615071099801A501CE010E945B
:102790004F109801A601B701CE010E948510CE010D
:1027A0008A0D9B1D9801A601B7010197DF91CF917A
:1027B0001F910F91FF90EF90DF90CF90BF90AF905F
:1027C0000C948510AF92BF92CF92DF92EF92FF925E
:1027D0000F931F93CF93DF93D62EC72EB22EA32E27
:1027E000EC017C01E40EF51ECE15DF055CF0DF91F7
:1027F000CF911F910F91FF90EF90DF90CF90BF90FE
:10280000AF90089598014B2D5A2D6D2D7C2DCE0142
:102810000E9485102196E8CF0F931F938C01209181
:10282000420330914303409144035091450370E0CB
:1028300060E090E080E00E94E2131F910F91089504
:102840002F923F924F925F926F927F928F929F92C0
:10285000AF92BF92CF92DF92EF92FF920F931F93AE
:10286000CF93DF9300D000D0CDB7DEB75C016B0112
:102870001A0129010B831C830B811C81000F111F7E
:102880003A01601A710A8B809C808A0C9B1C97010C
:10289000A301C4010E944F10C601840D951D9A83A7
:1028A0008983BC01615071099701A301C4010E9491
:1028B0004F10401A510A8B819C81C80ED91E970176
:1028C000A201B601C5010E948510A20CB31C97019C
:1028D000A201B601C50101970E948510870121E080
:1028E0004B815C81B601C4010E9491118B819C8156
:1028F000A81AB90A91E0A91AB10822E04B815C81BB
:10290000B601C5010E949111C980DA808B819C813A
:10291000C81AD90A91E0C91AD10824E04B815C8118
:10292000B601C5010E94911128E04B815C81B6017E
:10293000C4010E9491110F900F900F900F90DF91A2
:10294000CF911F910F91FF90EF90DF90CF90BF90AC
:10295000AF909F908F907F906F905F904F903F903F
:102960002F9008952F923F924F925F926F927F9295
:102970008F929F92AF92BF92CF92DF92EF92FF928F
:102980000F931F93CF93DF931C015B012A01E90191
:10299000680137017801EE0CFF1C4801820C931C82
:1029A0004E195F098301C4010E94E213CE19DF09A9
:1029B0002197AC0CBD1C420C531CC2018C199D0903
:1029C00073018E0121E0A601B50101970E94371223
:1029D00022E0A601B501C4010E943712DF91CF9118
:1029E0001F910F91FF90EF90DF90CF90BF90AF902D
:1029F0009F908F907F906F905F904F903F902F901F
:102A000008954F925F926F927F928F929F92AF92B2
:102A1000BF92CF92DF92EF92FF920F931F93CF93CB
:102A2000DF935C014B013A012901D02FC12F8601B0
:102A30000E940B1397014D2F5C2FB201C3010E941E
:102A40000B139401A501B7018D2F9C2F0E940B132E
:102A5000DF91CF911F910F91FF90EF90DF90CF907A
:102A6000BF90AF909F908F907F906F905F904F90AE
:102A700008952F923F924F925F926F927F928F9222
:102A80009F92AF92BF92CF92DF92EF92FF920F93FD
:102A90001F93CF93DF93CDB7DEB7A8970FB6F89407
:102AA000DEBF0FBECDBF5C016FA378A74A0139011D
:102AB000C80187012FA138A5621673060CF0BEC1AC
:102AC000E216F3060CF4C9C13FA128A578A66FA2AF
:102AD000632E722E3A2D2B2D5401832E922E4FA150
:102AE00058A540175107C9F58A149B042CF43A2DB8
:102AF0002B2D5401832E922E8A159B052CF08816BF
:102B000099060CF44C01C501A401481B590B4F5FF9
:102B10005F4F96016FA178A5A8960FB6F894DEBF17
:102B20000FBECDBFDF91CF911F910F91FF90EF901E
:102B3000DF90CF90BF90AF909F908F907F906F90DD
:102B40005F904F903F902F900C944F10032F122FB7
:102B50003A2D2B2D5C01832F922F94012A193B09CA
:102B6000A3016FA178A5461B570BDC01AA19BB096D
:102B7000BA87A987F801E61BF70BFE8BED8BBC012A
:102B8000681979097E876D87C801861997099A8B1C
:102B9000898B130191E0291A31080615170509F4EC
:102BA00018014FA058A41D821E821F821886198208
:102BB0001A821B821C82BA01550F880B990B6F8BEE
:102BC000788F898F9A8F8D899E89092E000CAA0B88
:102BD000BB0B8B8F9C8FAD8FBE8FA901330F660B04
:102BE000770B4F8F58A369A37AA369857A85072E3F
:102BF000000C880B990B6BA37CA38DA39EA32414BC
:102C000035040CF079C0C10101966FA178A5861733
:102C100097070CF4C0C0C101861B970B0196AFA1AA
:102C2000B8A5A80FB91FB88FAF8BAD0146195709CA
:102C3000ED85FE854E9F90014F9F300D5E9F300DBC
:102C40001124A901330F660B770B49835A836B83D9
:102C50007C8369857A85689F9001699F300D789F94
:102C6000300D1124C901330FAA0BBB0B8D839E833A
:102C7000AF83B88729893A89032E000C440B550B82
:102C8000298B3A8B4B8B5C8B4D895E892A01550FC2
:102C900066087708BF01072E000C880B990B6D871B
:102CA0007E878F87988B89859A85092E000CAA0BC1
:102CB000BB0B89879A87AB87BC87EF89F88D0E1786
:102CC0001F070CF06BC0A8960FB6F894DEBF0FBEBE
:102CD000CDBFDF91CF911F910F91FF90EF90DF90CB
:102CE000CF90BF90AF909F908F907F906F905F90AC
:102CF0004F903F902F90089569817A818B819C81BC
:102D00002F89388D498D5A8D0E940A237501E20E54
:102D1000F31E6D817E818F8198852B8D3C8D4D8D2D
:102D20005E8D0E940A232A0D3B1D89819A81AB8109
:102D3000BC814F8D58A169A17AA1840F951FA61F50
:102D4000B71F89839A83AB83BC838D819E81AF81BA
:102D5000B8854BA15CA16DA17EA1840F951FA61F14
:102D6000B71F8D839E83AF83B8872E153F052CF444
:102D70009E2D8F2D7901292F382F2E193F09A9015A
:102D80004F5F5F4F9601B201C7010E944F105FEF86
:102D9000451A550A34CF90E080E041CF69817A81AD
:102DA0008B819C8129893A894B895C890E940A23FD
:102DB0007401E20EF31E6D817E818F819885A301DF
:102DC00092010E940A232A0D3B1D49815A816B8181
:102DD0007C818D859E85AF85B889480F591F6A1FF4
:102DE0007B1F49835A836B837C834D815E816F8116
:102DF000788589859A85AB85BC85480F591F6A1FE0
:102E00007B1F4D835E836F8378872E153F052CF4DF
:102E10009E2D8F2D7901292F382F2E193F09A901B9
:102E20004F5F5F4F96016F89788DC7010E944F10E9
:102E3000AF89B88D1196B88FAF8B3FCFE614F704EA
:102E40000CF04DCE3FA128A578A66FA2632E722E5E
:102E50003A2D2B2D5401832E922E3FA128A518A781
:102E60000FA3061517050CF471CE032F122F3A2D60
:102E70002B2D5C01832F922F27CE2F923F924F92C2
:102E80005F926F927F928F929F92AF92BF92CF92FA
:102E9000DF92EF92FF920F931F93CF93DF9300D0B7
:102EA00000D000D00F92CDB7DEB78E839F835B0139
:102EB000190109831A838091440390914503EE819F
:102EC000FF81E817F9070CF067C0809142039091E9
:102ED0004303681779070CF05FC0CE2CD12CCF01CB
:102EE000F6E0EF9E800D911D1124181619060CF0C6
:102EF00053C0C60123E0880F991F2A95E1F7860F7A
:102F0000971F181619060CF047C0809164038111B1
:102F100003C0403B08F04F5F25E0429FA001112411
:102F2000CA0188599F4F9D838C834E805F801B828E
:102F30009B81F12C953019F0EC81FD81F4903501E5
:102F4000912C812CF0FE41C0F1E0A1018101EF1232
:102F500049C0B501680D791DC2010E94310EF69479
:102F60008FEF881A980A6C0C7D1C98E089169104E2
:102F700049F7EB81EF5FEB832E813F812C0D3D1DE7
:102F80003F832E833FEF431A530A8C819D81019624
:102F90009D838C83E63061F627960FB6F894DEBFEA
:102FA0000FBECDBFDF91CF911F910F91FF90EF909A
:102FB000DF90CF90BF90AF909F908F907F906F9059
:102FC0005F904F903F902F90089529813A8122156C
:102FD000330529F231E009811A81E31203C04981E6
:102FE0005A81B7CF9601A601B3018E819F810E94BD
:102FF000E213B5CFCF92DF92EF92FF920F931F9320
:10300000CF93DF93482F8A30F9F48091390398E009
:10301000899F9001112480913A0390913B03820F84
:10302000931F90933B0380933A0310923D031092B9
:103030003C0381E090E0DF91CF911F910F91FF90D1
:10304000EF90DF90CF9008958D3099F3F090390391
:10305000C0903A03D0903B03C0913C03D0913D0314
:1030600000913403109135032091360330913703DA
:10307000EF2CB601CE010E943D176F2D70E086E067
:10308000F89EC00DD11D1124D0933D03C0933C0385
:1030900080916503882369F22AEF2603C001279FE8
:1030A000900D11242091440330914503820F931F0A
:1030B0008C179D070CF0BDCF83E0660F771F8A95B4
:1030C000E1F76C0D7D1D70933B0360933A03ADCF28
:1030D00090933D0380933C0370933B0360933A03CA
:1030E000089580913C0390913D03089580913A03A7
:1030F00090913B030895811101C081E080933903D1
:10310000089580933403909335038093360390930E
:1031100037030895909337038093360370933503F4
:103120006093340308958093650308958091380374
:1031300008950C94690D809364030895CF93DF93F1
:10314000EC018991811103C0DF91CF9108950E9414
:10315000FA17F7CF0E949E188AE00C94FA17CF93C3
:10316000DF93982FD62FC42FE0916603F091670369
:103170008181933009F473C0B0F4913051F19230F1
:1031800009F440C060E00E94571EE0916603F09190
:10319000670360E082810E94571EE0916603F09110
:1031A000670360E026C0943009F462C0953051F79F
:1031B00061E00E94571EE0916603F091670361E0B1
:1031C00082810E94571EE0916603F091670361E0DF
:1031D00029C061E00E94571EE0916603F0916703E9
:1031E00060E082810E94571EE0916603F0916703C0
:1031F00061E084810E94571EE0916603F0916703AD
:1032000060E018C060E00E94571EE0916603F091F4
:10321000670361E082810E94571EE0916603F0918E
:10322000670360E084810E94571EE0916603F0917D
:10323000670361E085810E94571EE0916603F0916B
:1032400067036D2F80810E94CF1EE0916603F0918D
:1032500067036C2F8381DF91CF910C94CF1E61E0C7
:103260000E94571EE0916603F091670360E0D2CFA1
:1032700060E00E94571EE0916603F091670361E0F1
:10328000B0CFFC01909367038093660362E0818175
:103290000E94411FE0916603F091670362E0828122
:1032A0000E94411FE0916603F091670363E0808113
:1032B0000E94411FE0916603F091670362E0848100
:1032C0000E94411FE0916603F091670362E08581EF
:1032D0000E94411FE0916603F091670363E08381E0
:1032E0000E94411F40E060E080E00C94AF181F9303
:1032F000CF93DF93D82F162FC42F62E0842F0E9424
:10330000411F60E08C2F0E94571E6AE070E080E051
:1033100090E00E94EE2061E08C2F0E94571E6AE030
:1033200070E080E090E00E94EE20612F8D2F0E94DF
:10333000890D40E068E782E0DF91CF911F910C9406
:103340008E0D4F925F926F927F928F929F92AF926B
:10335000BF92CF92DF92EF92FF920F931F93CF9382
:10336000DF9300D000D000D00F92CDB7DEB78D83B1
:103370006F836A01A801B9014701B12CA12CD501C5
:10338000C701481559056A057B0514F4D901C80120
:10339000A5019401281B390B4A0B5B0BAFE0B0E091
:1033A0000E943823A50194010E940A2329013A01B1
:1033B0008AE5C81AD108C6010E942C1E8C01C601DC
:1033C0000E94FD1D6C019F81E92EF12C9D81892FAA
:1033D00090E09E838D8321E030E04FE050E0B70124
:1033E0000E94BA10D601A30192010E9443238824AF
:1033F0008A942FE7922EA12CB12CA50194010E9452
:103400000A236701C20ED31ED801A30192010E94B4
:103410004323A50194010E940A234D815E81420F3E
:10342000531F01E010E09601B7018D819E810E943B
:103430000B1327960FB6F894DEBF0FBECDBFDF91FA
:10344000CF911F910F91FF90EF90DF90CF90BF90A1
:10345000AF909F908F907F906F905F904F90089566
:10346000CF92DF92EF920F93CF93DF936C01862F71
:10347000C42FD22F0E947B188C2F90E061E070E067
:10348000681B790B0E948A18602F70E08D2F90E0E6
:103490000E946818D0E0C0E0F60101900020E9F732
:1034A0003197EC19FD09CE17DF0750F0EE2081F0BF
:1034B000DF91CF910F91EF90DF90CF900C94EC0EB5
:1034C000F601EC0FFD1F80810E94FA172196E4CFD0
:1034D000DF91CF910F91EF90DF90CF9008950C94F2
:1034E000130F81E090E00C940C148093680326E1A4
:1034F000829FC00111240E944B239C01909347039B
:103500008093460381E0232B09F080E008958F9299
:10351000AF92CF92EF920F93CF93DF93CDB7DEB7F9
:1035200090916803981700F1E0914603F0914703EA
:1035300096E1899FE00DF11D112461874287538731
:10354000E082C182A282838224830583CF010E940C
:10355000900B0E943B0580E0DF91CF910F91EF909F
:10356000CF90AF908F90089581E0F6CF90936A034B
:103570008093690308958091690390916A03089587
:10358000DC0180916803861778F026E1E09146031C
:10359000F0914703629FE00DF11D112401900D92FF
:1035A0002A95E1F780E0089581E008950F931F9335
:1035B000CF93DF93D82F192FC0E006E180916803E5
:1035C000C81728F0DF91CF911F910F910895809136
:1035D000460390914703C09F800D911D11240E94C6
:1035E000900B8D2F912F0E949A0BCF5FE7CF9F9268
:1035F000AF92BF92CF92DF92EF92FF920F931F9301
:10360000CF93DF93EC01D0906803E0906903F090D2
:103610006A03C12C00E010E046E1942E409168035B
:10362000C416D8F1023008F05DC0112349F181E0E1
:103630008D836091690370916A037B836A831C8226
:103640008091460390914703FC013D2D20E04213F9
:103650004FC0431789F0FC0126E1329FE00DF11DB8
:103660001124A285B385B983A8830780F085E02D56
:10367000FB83EA8321E02C83123008F08FC011E035
:10368000812FDF91CF911F910F91FF90EF90DF90ED
:10369000CF90BF90AF909F900895C99C5001112486
:1036A00080914603909147038A0D9B1D0E94900BC9
:1036B0000E94070BE0914603F0914703EA0DFB1DC2
:1036C0008091690390916A0327813085821793075F
:1036D00010F490878783868184FD1F5F81FD0F5FD3
:1036E000C3949CCF0695011708F4A1CF10E0C8CF72
:1036F000568154FF0AC0A781B085A617B70728F4E2
:10370000AE15BF0510F47D01322F2F5F76969FCF47
:10371000FC01219FE00DF11D1124568154FF0DC0C5
:103720005F7E56830780F085E02DE617F70728F4C3
:10373000EA17FB0710F4DF01D22E51E0520F3513C8
:1037400002C052E0520F252F241710F34D1509F433
:1037500096CF26E1DC01329FA00DB11D1124FC01A2
:10376000D29EE00DF11D11241A968D919C911B970C
:1037700022853385820F931F97FD01969595879536
:103780009983888317968D919C9127813085820F2C
:10379000931F969587959B838A8371CFDB0120E0E9
:1037A00016E1D2CF9093090180930801089580918A
:1037B000080190910901089561E00C94411F0C9457
:1037C000261F0E94261F9C0181E040910801509114
:1037D00009012417350708F080E008950F931F931F
:1037E000CF93DF9300D000D00F92CDB7DEB78B011F
:1037F0004D8359830E94261F9C01029FC001039F95
:10380000900D129F900D11246D8179810E94D42218
:10381000B0E0A0E0CD010F900F900F900F900F90AF
:10382000DF91CF911F910F910895982F862F692FC7
:103830000C94571E62E00C94411FFC01818180832F
:1038400008958F92AF92CF92EF920F93CF93DF9321
:10385000CDB7DEB72A970FB6F894DEBF0FBECDBF47
:1038600084E00E94751A82E1882E93E1A92ECC246F
:10387000CA942FE0E22E01E021E046EA5FEF60E12A
:1038800080E00E94871A3CE0E32E0AE021E041EF4D
:103890005FEF61E181E00E94871A41E1E42E24E6B6
:1038A0004FE050E062E182E00E94871A5EE0E52E80
:1038B00001E024E64AE550E063E183E00E94871AD4
:1038C00089E190E0A0E0B0E08D839E83AF83B8876C
:1038D0008AE089878EE08A8785E090E09A838983F1
:1038E0001C821B8264E670E080E090E00E94EE2083
:1038F00080E991E00E94B61ACE0101960E94D61A84
:103900002A960FB6F894DEBF0FBECDBFDF91CF91E0
:103910000F91EF90CF90AF908F90089584EF91E04A
:103920000E94D21B84E10E94DC1B85E10E94DC1B0B
:1039300080E10C94DC1BEAE4F3E085E0808382E024
:10394000818384E0828386E0838388E0848387E0C8
:103950008583CF010E94411940E060E080E00C9433
:10396000AF18EF920F930E9496228DE00E941A1CCE
:103970006DE080E00E94151CE8E4F3E081E08083C4
:1039800083E08183CF010E941D1C0E949B1C4FEF8E
:1039900062E183E10E9477190E946F1AEE24E3949A
:1039A0000AE02AE041E062E08BE191E00E94301AF7
:1039B00068EE73E080E090E00E94EE200E94211CFF
:1039C0000F91EF900C948E1C7F928F929F92AF92EA
:1039D000BF92CF92DF92EF92FF920F931F93CF93FC
:1039E000DF93CDB7DEB760970FB6F894DEBF0FBE9A
:1039F000CDBF0E946F1A0E94BB1A7C0100916D031B
:103A000010916E0330E020E040916B0350916C0305
:103A100060E180E40E94A11986E190E00E944B23BE
:103A20006C0110E084E2A82E81E0B82ECE01019650
:103A30004C01612FC6010E94C01AC114D10431F19A
:103A4000F601868181FF8DC080858F9387818F935A
:103A5000BF92AF929F928F920E947324F6010581CC
:103A60007480E780F0840E94BB1A41E0E816F906F2
:103A700009F040E0E12C272D61E0C4010E94301ADA
:103A80000F900F900F900F900F900F901F5F1430BA
:103A900081F6C6010E94E12384E10E94DF1B6C01D4
:103AA000DF928F9384E291E09F938F9381E090E087
:103AB0008C0F9D1F9F938F930E9473240E94D71B8E
:103AC00041E08C159D0508F040E0E12C05E121E086
:103AD00061E0CE0101960E94301A85E10E94DF1B51
:103AE0006C01DF928F9384E291E09F938F93E1E0EA
:103AF000F0E0EC0FFD1FFF93EF930E9473240E94F0
:103B0000D71B41E08C159D0508F040E0E12C05E154
:103B100024E661E0CE0101960E94301AEE24E3947F
:103B200001E021E041E061E08AE291E00E94301A88
:103B30000FB6F894DEBF0FBECDBF60960FB6F894F7
:103B4000DEBF0FBECDBFDF91CF911F910F91FF90D0
:103B5000EF90DF90CF90BF90AF909F908F907F902D
:103B60000895E12C0581248141E061E087E291E044
:103B70000E94301A8BCF8BE693E00E94F71A809157
:103B800070038111109270030C94E41C0E94B11C0C
:103B90000E94BB1DFDCF8091BC0087FFFCCF9091A0
:103BA000B900987F983119F081E0903409F480E0F1
:103BB00008951092BC0094EA9093BC009091BC00D0
:103BC00097FFFCCF9091B900987F983039F480939B
:103BD000BB0084E88093BC000C94CB1D81E0089569
:103BE0000895880F991FFC01ED59FA4F24918C59C3
:103BF0009A4FFC018491922F089597FD10C0893649
:103C000021E092077CF420E08B35910574F422309A
:103C1000E9F02330A9F0213061F00C94F11D8859AE
:103C20009E4FEBCF88569140EACF8A5591092F5F7E
:103C3000EBCF2AE530E0A901481B590BCA01EDCFB3
:103C40002AE530E0A901481B590BCA010E94F11D69
:103C50009195819591090895865A9F4F0C94FD1D69
:103C60008350893030F4E82FF0E0E55DFE4F80812D
:103C7000089582E10895883030F08E3030F086313A
:103C800030F482E0089580E0089581E0089586E0B0
:103C900008958E3008F08E5F882341F0982F969516
:103CA0009695969528EF929F800D11240895CF93B5
:103CB000DF93C82FD62F8F3FC9F00E943B1E813063
:103CC000E9F0823091F1811111C08C2F0E94491EC0
:103CD00021E030E0A90102C0440F551F8A95E2F7A8
:103CE000CA01DD2331F09BB1892B8BB9DF91CF91D4
:103CF00008952BB1809590958223F7CF8C2F0E9449
:103D0000491E21E030E0A90102C0440F551F8A95E9
:103D1000E2F7CA01DD2321F095B1892B85B9E6CF01
:103D200025B1809590958223F9CF8C2F0E94491E52
:103D300021E030E0A90102C0440F551F8A95E2F747
:103D4000CA01DD2321F098B1892B88B9CFCF28B1E2
:103D5000809590958223F9CFCF93DF93D82F8F3F13
:103D6000E1F00E943B1E8130A1F08230A1F0811170
:103D700014C0C9B18D2F0E94491E2C2F30E002C003
:103D8000359527958A95E2F72170822FDF91CF91A3
:103D90000895C3B1EFCFC6B1EDCF20E0F6CFCF93FA
:103DA000DF93D82FC62F611106C060E08D2FDF9101
:103DB000CF910C94571E6F3F11F461E0F7CF0E9432
:103DC000301E833069F148F48130D1F08230E9F05F
:103DD000882379F0C7FFE9CFF0CF863061F18730D3
:103DE000C9F78091B00080628093B000C093B400A6
:103DF00004C084B5806884BDC7BDDF91CF910895AC
:103E000084B5806284BDC8BDF8CF80918000806891
:103E100080938000D0E0D0938900C0938800EDCFDC
:103E200080918000806280938000D0E0D0938B00EE
:103E3000C0938A00E2CF8091B00080688093B00088
:103E4000C093B300DACF80930A0108958E3008F052
:103E50008E5020910A0190E4299F900111248770CF
:103E6000822B80937C0080917A00806480937A001A
:103E700080917A0086FDFCCF809178009091790046
:103E80000895CF93C82F8F3F29F0623028F06250F9
:103E90006230D0F1CF9108950E943B1E811110C075
:103EA0008C2F0E94491E9AB121E030E002C0220FFF
:103EB000331F8A95E2F72095309529232AB9EACF56
:103EC000813091F0823031F78C2F0E94491E97B1DA
:103ED00021E030E002C0220F331F8A95E2F72095DF
:103EE0003095292327B9D6CF8C2F0E94491E94B133
:103EF00021E030E002C0220F331F8A95E2F72095BF
:103F00003095292324B9C6CF0E943B1E81110DC0D4
:103F10008C2F0E94491E9AB121E030E001C0220F8F
:103F20008A95EAF7922B9AB9B5CF813081F0823029
:103F300009F0B0CF8C2F0E94491E97B121E030E0EC
:103F400001C0220F8A95EAF7922B97B9A3CF8C2F45
:103F50000E94491E94B121E030E001C0220F8A95F1
:103F6000EAF7922B94B996CF1F920F920FB60F9249
:103F700011242F933F934F935F936F937F938F936E
:103F80009F93AF93BF93CF93DF93EF93FF93C09132
:103F90005E03D0915F03209739F082E00E94AC1E4F
:103FA000682F82E0FE010995FF91EF91DF91CF919B
:103FB000BF91AF919F918F917F916F915F914F9141
:103FC0003F912F910F900FBE0F901F9018951F9249
:103FD0000F920FB60F9211242F933F934F935F933D
:103FE0006F937F938F939F93AF93BF93CF93DF9301
:103FF000EF93FF93C0915C03D0915D03209739F05C
:1040000083E00E94AC1E682F83E0FE010995FF91BA
:10401000EF91DF91CF91BF91AF919F918F917F9160
:104020006F915F914F913F912F910F900FBE0F9025
:104030001F9018951F93CF93DF93C82F162FD72F5C
:1040400060E00E94411FC23031F0C33081F0DF9147
:10405000CF911F91089510935E03D0935F038091D9
:104060006900816080936900E89A7894F0CF10939A
:104070005C03D0935D038091690081608093690047
:10408000E99AF3CF823019F0833039F00895E89837
:1040900010925F0310925E030895E99810925D03F9
:1040A00010925C0308951F921FB61F9211242F9344
:1040B0003F938F939F93AF93BF93809154039091BD
:1040C0005503A0915603B09157033091530323E059
:1040D000230F2D3750F50196A11DB11D20935303D9
:1040E0008093540390935503A0935603B0935703C2
:1040F0008091580390915903A0915A03B0915B03AA
:104100000196A11DB11D8093580390935903A0936C
:104110005A03B0935B03BF91AF919F918F913F91F1
:104120002F911F901FBE1F90189526E8230F02960F
:10413000A11DB11DD3CFCF93DF9300D000D0CDB759
:10414000DEB78FB7F8942091540330915503409116
:1041500056035091570329833A834B835C838FBF67
:1041600069817A818B819C810F900F900F900F90C5
:10417000DF91CF910895CF93DF9300D000D0CDB7DA
:10418000DEB73FB7F8948091580390915903A091FE
:104190005A03B0915B0326B5A89B05C02F3F19F0C9
:1041A0000196A11DB11D3FBFBA2FA92F982F8827B7
:1041B000820F911DA11DB11D9C01AD0162E0220F76
:1041C000331F441F551F6A95D1F7CA01B9010F90DB
:1041D0000F900F900F90DF91CF9108958F929F9243
:1041E000AF92BF92CF92DF92EF92FF92CF93DF9385
:1041F00000D000D0CDB7DEB76B017C010E94BB20A0
:104200004B015C01C114D104E104F104C9F00E9426
:10421000BB20DC01CB0188199909AA09BB09883E9A
:104220009340A105B10570F321E0C21AD108E1085D
:10423000F10888EE880E83E0981EA11CB11CE2CF25
:104240000F900F900F900F90DF91CF91FF90EF9014
:10425000DF90CF90BF90AF909F908F900895809304
:10426000BB0084E88093BC008091BC0087FFFCCF3A
:104270009091B900987F81E0983209F480E0089528
:10428000813051F484EC8093BC008091BC0087FFA6
:10429000FCCF8091BB00089584E8F5CF1092BC005C
:1042A00084EA8093BC008091BC0087FFFCCF8091A2
:1042B000B900887F883039F44093BB0084E880934C
:1042C000BC000C94CB1D81E0089584E98093BC0070
:1042D00008958093520360935103409350030895CF
:1042E000CF93DF93D82FC62F809150030E94D91D02
:1042F0008D2F0E942F218C2F0E942F2184E98093E3
:10430000BC00DF91CF9108951F93CF93DF93182FB7
:10431000EB01809150030E94D91D812F0E942F2113
:104320008D2F0E942F218C2F0E942F2184E98093B2
:10433000BC00DF91CF911F910895FF920F931F93BF
:10434000CF93DF93F82EEA01162F072F80915003A9
:104350000E94D91D8F2D0E942F21802F0E942F2176
:10436000812F0E942F218D2F0E942F218C2F0E94A0
:104370002F2184E98093BC00DF91CF911F910F9191
:10438000FF900895CF93C82F809150030E94D91DAC
:104390008C2F0E942F218091500381600E94D91D93
:1043A00080E00E94402194E99093BC00CF91089551
:1043B000CF93DF93C82F809150030E94D91D8C2F7B
:1043C0000E942F218091500381600E94D91D81E0BD
:1043D0000E944021C82FD0E0DC2FCC2780E00E9433
:1043E000402194E99093BC009E01282BC901DF91E4
:1043F000CF910895CF92DF92EF92FF92CF93DF9308
:1044000000D000D0CDB7DEB78983809150030E94E1
:10441000D91D89810E942F218091500381600E94C3
:10442000D91D81E00E94402190E0B0E0A0E0F82E8C
:10443000EE24DD24CC2481E00E944021E82A81E0A2
:104440000E944021898380E00E944021C82A84E99B
:104450008093BC00D701C6012981922BBC01CD01FC
:104460000F900F900F900F90DF91CF91FF90EF90F2
:10447000DF90CF900895EF92FF920F931F93CF9309
:10448000DF93E82EEB018A01F22E809150030E9407
:10449000D91D8E2D0E942F21FF2021F080915003E5
:1044A0000E942F210C0F1D1F0C171D0751F484E9CA
:1044B0008093BC00DF91CF911F910F91FF90EF90FF
:1044C000089589910E942F21EFCFEF92FF920F93D1
:1044D0001F93CF93DF93F82E8B01EA018091500355
:1044E0000E94D91D8F2D0E942F2180915003816041
:1044F0000E94D91D209751F484E98093BC00DF917C
:10450000CF911F910F91FF90EF90089578018FEF59
:10451000E81AF80A81E0C230D10508F480E00E9470
:104520004021F801808321978701E4CF789484B5F6
:10453000826084BD84B5816084BD85B5826085BD9F
:1045400085B5816085BDEEE6F0E080818160808385
:10455000E1E8F0E010828081826080838081816068
:104560008083E0E8F0E0808181608083E1EBF0E02F
:10457000808184608083E0EBF0E0808181608083D3
:10458000EAE7F0E0808184608083808182608083BC
:104590008081816080838081806880831092C100E7
:1045A0008CE08093B8000895AA1BBB1B51E107C0A3
:1045B000AA1FBB1FA617B70710F0A61BB70B881FB3
:1045C000991F5A95A9F780959095BC01CD01089542
:1045D000A1E21A2EAA1BBB1BFD010DC0AA1FBB1F07
:1045E000EE1FFF1FA217B307E407F50720F0A21B79
:1045F000B30BE40BF50B661F771F881F991F1A94E6
:1046000069F760957095809590959B01AC01BD010F
:10461000CF010895052E97FB1EF400940E942123DC
:1046200057FD07D00E94E82207FC03D04EF40C94FB
:10463000212350954095309521953F4F4F4F5F4F27
:10464000089590958095709561957F4F8F4F9F4FFE
:104650000895A29FB001B39FC001A39F700D811D5B
:104660001124911DB29F700D811D1124911D08957B
:104670000E942923A59F900DB49F900DA49F800DAB
:10468000911D11240895B7FF0C9438230E943823FC
:10469000821B930B08950F931F93CF93DF939C017D
:1046A000029710F422E030E0E0917303F09174037C
:1046B00090E080E0B0E0A0E0309791F4009709F43A
:1046C00045C0821B930B84309105B8F58A819B818C
:1046D0006115710569F1FB0193838283FE0111C0AD
:1046E000408151810281138142175307F0F0421734
:1046F000530799F4109761F012960C931297139642
:104700001C933296CF01DF91CF911F910F910895A5
:104710000093730310937403F4CF009719F04817B4
:10472000590718F4CA01BD01EF01DF01F801C4CF38
:104730009093740380937303D1CFFE01E80FF91FA8
:1047400021933193029799838883DCCF8091710301
:1047500090917203892B41F48091020190910301A1
:1047600090937203809371038091000190910101F5
:10477000009741F48DB79EB7409104015091050117
:10478000841B950B40917103509172034817590790
:1047900008F0B8CF841B950B8217930708F4B2CFAB
:1047A000B9016E5F7F4F8617970708F4ABCF640F90
:1047B000751F7093720360937103FA012193319313
:1047C000A1CFCF93DF939C010097E9F0FC013297D2
:1047D00013821282C0917303D0917403DE0190E0C2
:1047E00080E02097A1F480819181280F391F80916A
:1047F0007103909172038217930709F067C0F093D9
:104800007203E0937103DF91CF910895DA01AE173F
:10481000BF0708F041C012964D915C911397CD01EE
:104820004115510599F7DC011396FC93EE9312970D
:104830004D915D91A40FB51FEA17FB0781F420810C
:1048400031812E5F3F4F240F351FDC0111963C93C1
:104850002E932281338113963C932E931297B0E0CE
:10486000A0E08A819B810097B1F5FE018191919131
:10487000E80FF91F80917103909172038E179F07C3
:1048800011F6109759F51092740310927303D09398
:104890007203C0937103B7CFB383A2834081518168
:1048A000240F351FA217B30771F44E5F5F4F2D9190
:1048B0003C911197420F531F5183408312962D91C3
:1048C0003C9133832283009709F0ADCFF0937403BA
:1048D000E093730398CFDE01EC01C3CF13961C92D3
:1048E0001E921297D4CFAEE0B0E0E9E7F4E20C9468
:1048F00020270D891E8986E08C831A8309838FEF18
:104900009FE79E838D83AE01475E5F4F6F89788DF1
:10491000CE0101960E9496242F813885020F131F25
:10492000F80110822E96E4E00C943C27AFE0B0E052
:10493000ECE9F4E20C9412277C013B018A01DC01D2
:1049400017961C921E92169713968C9181FFC3C1E5
:104950009AE0292EFE0131964F01D70113969C91C2
:10496000F30193FD859193FF81913F01882309F421
:1049700048C1853239F493FD859193FF81913F01C0
:10498000853229F4B70190E00E948426E6CFB12C4D
:10499000412C512CBFE1B51538F08B3209F188F468
:1049A000803201F1833221F157FC3AC020ED280F0B
:1049B0002A3040F556FE1FC0B29C200D1124B22EA5
:1049C00006C08D3291F0803379F7689450F8F30186
:1049D00093FD859193FF81913F018111DBCF20C031
:1049E000689451F8689452F8F2CF689453F8EFCF76
:1049F000689454F8ECCF429C200D1124422E689408
:104A000055F8E5CF8E3229F456FCFBC0689456F871
:104A1000DECF8C3619F4689457F8D9CF8836B9F2BE
:104A2000982F9F7D95549330C0F08336A1F1833742
:104A3000C1F1833509F05BC0D801CD90DD908D01C7
:104A40006B2D70E056FC02C06FEF7FEFC6010E9435
:104A50006E265C01689457F80AC00C5F1F4FEFE3A5
:104A6000E983AA24A394B12C6401E89457F853FC79
:104A700004C04A141B0409F018F5342CA114B10425
:104A800031F5332009F469CFB70180E290E00E944C
:104A900084263A94F6CFD8018C9189830E5F1F4FFC
:104AA000E0CFF801C190D1908F016B2D70E056FCE2
:104AB00002C06FEF7FEFC6010E9479265C01D5CF5F
:104AC000B70180E290E00E9484264A94D2CFF6019A
:104AD00057FC859157FE81916F01B70190E00E94CC
:104AE000842631103A94B1E0AB1AB108C7CF8436AE
:104AF00019F0893609F074C0F80157FE6AC0619157
:104B00007191819191918F01E52DEF76DE2E97FFC6
:104B100009C090958095709561957F4F8F4F9F4FFD
:104B20006894D7F82AE030E0A4010E94B426C82E89
:104B3000C818AC2C5D2CD6FE0CC0E89450F8CB14F1
:104B400040F4D4FE05C0D2FC03C05D2D5E7E552E20
:104B5000AB2C54FE98C0FE01EC0DF11D808180331A
:104B600009F08AC0652D697E562E752D7870372E16
:104B700053FC98C050FE92C0BC2CA41418F44C0CEA
:104B8000B42CBA1854FE94C0B70180E390E00E94A0
:104B9000842652FE09C088E790E051FE02C088E5F5
:104BA00090E0B7010E948426CB1408F48DC0CA940B
:104BB000D12C8FEFC81AD80AC80CD91CD6018E91F7
:104BC0006D01B70190E00E9484268C149D04B1F71A
:104BD00058CF61917191072E000C880B990B93CFE0
:104BE000D52CE894D4F82AE030E0853739F1F52D5A
:104BF000F97FDF2E8037A9F058F48835A9F08F3679
:104C0000D9F0F701868197812F96E2E10C942E2747
:104C10008837B9F7D4FE02C06894D2F820E130E0BA
:104C20000DC06894D4F8F6CF54FE03C02F2F266031
:104C3000D22E20E132E002C028E030E0F801D7FEB9
:104C400015C041915191619171914C875D876E873B
:104C50007F878F01A4016C857D858E859F850E944D
:104C6000B426C82EC818E894D7F863CF81919191E3
:104C7000AC0170E060E0E9CF52FC02C0A39475CFB4
:104C8000A394A39472CF852D867809F46ECFF6CFC6
:104C9000B70180E290E00E948426A394A414C0F39C
:104CA000312C70CF342C3A18A41408F46BCFF8CF01
:104CB000852D867809F478CF8BE251FE80E257FC8F
:104CC0008DE2B70190E06ECFB70180E390E00E94E3
:104CD0008426BA9469CF8FEF9FEF96CFFC010590A1
:104CE000615070400110D8F7809590958E0F9F1FEE
:104CF0000895FC016150704001900110D8F7809533
:104D000090958E0F9F1F08950F931F93CF93DF935E
:104D1000182F092FEB018B8181FD09C01FEF0FEFC9
:104D2000812F902FDF91CF911F910F91089582FFD6
:104D300014C02E813F818C819D81281739073CF456
:104D4000E881F981CF0101969983888310838E8150
:104D50009F8101969F838E83E3CFE885F985812F1C
:104D60000995892BA1F3DACFFA01AA27283051F14E
:104D7000203181F1E8946F936E7F6E5F7F4F8F4F8C
:104D80009F4FAF4FB1E03ED0B4E03CD0670F781FEB
:104D9000891F9A1FA11D680F791F8A1F911DA11DD0
:104DA0006A0F711D811D911DA11D20D009F4689409
:104DB0003F912AE0269F11243019305D3193DEF6B1
:104DC000CF010895462F4770405D4193B3E00FD067
:104DD000C9F7F6CF462F4F70405D4A3318F0495D52
:104DE00031FD4052419302D0A9F7EACFB4E0A69535
:104DF0009795879577956795BA95C9F70097610557
:104E0000710508959B01AC010A2E069457954795AC
:104E100037952795BA95C9F7620F731F841F951FA1
:104E2000A01D08952F923F924F925F926F927F92B2
:104E30008F929F92AF92BF92CF92DF92EF92FF92AA
:104E40000F931F93CF93DF93CDB7DEB7CA1BDB0B56
:104E50000FB6F894DEBF0FBECDBF09942A883988FB
:104E600048885F846E847D848C849B84AA84B98402
:104E7000C884DF80EE80FD800C811B81AA81B9810E
:104E8000CE0FD11D0FB6F894DEBF0FBECDBFED0122
:064E90000895F894FFCF25
:104E9600000075032000FEFEF40101000103070F68
:104EA6001F3F7F0080C0E0F0F8FCFE574149545F89
:104EB600315F53002564004552520007120100126B
:044EC60012020306CB
:00000001FF
