:100000000C94B2020C94CF020C94CF020C94CF0249
:100010000C94CF020C94CF020C94CF020C94CF021C
:100020000C94CF020C94CF020C94CF020C94CF020C
:100030000C94CF020C94CF020C94CF020C94CF02FC
:100040000C94AA1F0C94CF020C94CF020C94CF02F4
:100050000C94CF020C94CF020C94CF020C94CF02DC
:100060000C94CF020C94CF0200000000003E5B4FC6
:100070005B3E3E6B4F6B3E1C3E7C3E1C183C7E3C08
:10008000181C577D571C1C5E7F5E1C00183C180016
:10009000FFE7C3E7FF0018241800FFE7DBE7FF30A6
:1000A000483A060E2629792926407F050507407F14
:1000B00005253F5A3CE73C5A7F3E1C1C08081C1C87
:1000C0003E7F14227F22145F5F005F5F06097F017D
:1000D0007F006689956A606060606094A2FFA29468
:1000E00008047E040810207E201008082A1C080836
:1000F0001C2A08081E101010100C1E0C1E0C303884
:100100003E3830060E3E0E06000000000000005F84
:1001100000000007000700147F147F14242A7F2AA0
:100120001223130864623649562050000807030062
:10013000001C2241000041221C002A1C7F1C2A08AE
:10014000083E080800807030000808080808000011
:1001500060600020100804023E5149453E00427F85
:10016000400072494949462141494D331814127FD4
:100170001027454545393C4A494931412111090774
:100180003649494936464949291E000014000000F5
:1001900040340000000814224114141414140041C7
:1001A00022140802015909063E415D594E7C121184
:1001B000127C7F494949363E414141227F414141BC
:1001C0003E7F494949417F090909013E4141517337
:1001D0007F0808087F00417F41002040413F017FA8
:1001E000081422417F404040407F021C027F7F0470
:1001F00008107F3E4141413E7F090909063E4151B9
:10020000215E7F09192946264949493203017F01A8
:10021000033F4040403F1F2040201F3F4038403FA9
:10022000631408146303047804036159494D4300BF
:100230007F4141410204081020004141417F0402F6
:10024000010204404040404000030708002054548D
:1002500078407F284444383844444428384444286B
:100260007F385454541800087E090218A4A49C78BE
:100270007F0804047800447D40002040403D007F1A
:100280001028440000417F40007C047804787C08FA
:100290000404783844444438FC18242418182424CE
:1002A00018FC7C08040408485454542404043F44B3
:1002B000243C4040207C1C2040201C3C4030403CE2
:1002C00044281028444C9090907C4464544C440042
:1002D00008364100000077000000413608000201A6
:1002E0000204023C2623263C1EA1A161123A404092
:1002F000207A38545455592155557941225454780F
:1003000042215554784020545579400C1E527212A7
:100310003955555559395454545939555454580030
:1003200000457C410002457D420001457C407D1234
:1003300011127DF0282528F07C5455450020545496
:100340007C547C0A097F4932494949323A44444441
:100350003A324A4848303A4141217A3A424020787C
:10036000009DA0A07D3D4242423D3D4040403D3C7D
:1003700024FF2424487E4943662B2FFC2F2BFF09A2
:1003800029F620C0887E0903205454794100004496
:100390007D413048484A32384040227A007A0A0A81
:1003A000727D0D19317D2629292F282629292926F4
:1003B00030484D4020380808080808080808382F39
:1003C00010C8ACBA2F102834FA00007B00000814C3
:1003D0002A142222142A1408AA005500AAAA55AAEF
:1003E00055AA000000FF00101010FF00141414FFA5
:1003F000001010FF00FF1010F010F0141414FC0097
:100400001414F700FF0000FF00FF1414F404FC14A0
:100410001417101F10101F101F1414141F00101099
:1004200010F0000000001F101010101F101010100E
:10043000F010000000FF101010101010101010FF2E
:1004400010000000FF140000FF00FF00001F101745
:100450000000FC04F414141710171414F404F4002E
:1004600000FF00F714141414141414F700F71414F4
:1004700014171410101F101F141414F4141010F07B
:1004800010F000001F101F0000001F14000000FCEF
:10049000140000F010F01010FF10FF141414FF14DB
:1004A0001010101F00000000F010FFFFFFFFFFF012
:1004B000F0F0F0F0FFFFFF0000000000FFFF0F0F63
:1004C0000F0F0F3844443844FC4A4A4A347E020233
:1004D0000606027E027E0263554941633844443C6D
:1004E00004407E201E2006027E020299A5E7A599FF
:1004F0001C2A492A1C4C7201724C304A4D4D303036
:1005000048784830BC625A463D3E494949007E0120
:1005100001017E2A2A2A2A2A44445F444440514A3F
:10052000444040444A51400000FF0103E080FF0086
:100530000008086B6B083612362436060F090F06C2
:10054000000018180000001010003040FF010100EA
:100550001F01011E00191D1712003C3C3C3C00000D
:100560000000000011241FBECFEFD8E0DEBFCDBFDA
:1005700013E0A0E0B1E0EEE4F8E402C005900D92D3
:10058000AC33B107D9F723E0ACE3B3E001C01D926F
:10059000A93BB207E1F70E94C81D0C9425240C94D6
:1005A0000000CF93DF93D82FC62FE091B303F091D3
:1005B000B4034081648583850E94A3208D2F0E940F
:1005C0008A208C2F0E948A20DF91CF910C94AD203D
:1005D0001F93CF93DF93182FEB01E091B303F091BA
:1005E000B4034081648583850E94A320812F0E94EB
:1005F0008A208D2F0E948A208C2F0E948A20DF91D2
:10060000CF911F910C94AD20FF920F931F93CF9326
:10061000DF93F82EEA01162F072FE091B303F09134
:10062000B4034081648583850E94A3208F2D0E949E
:100630008A20802F0E948A20812F0E948A208D2F5D
:100640000E948A208C2F0E948A20DF91CF911F91D7
:100650000F91FF900C94AD20CF93C82FE091B3037E
:10066000F091B4034081648583850E94A3208C2F80
:100670000E948A20E091B303F091B403408141606D
:10068000648583850E94A32080E00E949420C82F67
:100690000E94AD208C2FCF910895CF93DF93C82F68
:1006A000E091B303F091B4034081648583850E9497
:1006B000A3208C2F0E948A20E091B303F091B40311
:1006C00040814160648583850E94A32080E00E9470
:1006D0009420C82FD0E0DC2FCC2780E00E9494200B
:1006E000C82B0E94AD20CE01DF91CF910895CF920B
:1006F000DF92EF92FF92CF93DF9300D000D0CDB77F
:10070000DEB78983E091B303F091B403408164853F
:1007100083850E94A32089810E948A20E091B303EF
:10072000F091B40340814160648583850E94A320D9
:1007300080E00E94942090E0B0E0A0E0F82EEE244B
:10074000DD24CC2480E00E949420E82A80E00E94EE
:100750009420898380E00E949420C82AD701C60192
:100760002981922B89839A83AB83BC830E94AD201D
:1007700069817A818B819C810F900F900F900F90EF
:10078000DF91CF91FF90EF90DF90CF900895FF928F
:100790000F931F93CF93DF93C82F062FF72E142F9D
:1007A000E091B303F091B4034081648583850E9496
:1007B000A3208C2F0E948A20115038F4DF91CF9112
:1007C0001F910F91FF900C94AD20C02FDF2D8991C8
:1007D0000E948A200C2FFD2EEFCFEF92FF920F93F5
:1007E0001F93CF93DF93D82F8B01C42FE091B303D6
:1007F000F091B4034081648583850E94A3208D2FEE
:100800000E948A20E091B303F091B40340814160DB
:10081000648583850E94A320C11108C0DF91CF9118
:100820001F910F91FF90EF900C94AD2078018FEF06
:10083000E81AF80A80E00E949420F8018083C150F1
:100840008701EACFCF93C82F682F66958AE80E9468
:10085000D102E091B303F091B403C083CF91089526
:10086000E091B303F091B40380810895EF92FF9279
:100870000F931F93CF93DF9300D000D00F92CDB78B
:10088000DEB77C018B0161E080E80E94D10261E06B
:100890008FEF0E94D10260E080E00E94D10266E00A
:1008A0008FEF0E94D10283E80E942C03682F6460BE
:1008B00083E80E94D10267E08FEF0E94D10261E0DD
:1008C00081E80E94D10261E080E80E94D1026BE6DB
:1008D00084E90E94D10260E083E80E94D1020E9474
:1008E000F21FE091B303F091B4037583648383E84E
:1008F0000E942C038D83882399F161E083E80E9494
:10090000D10282E90E942C03982F9F77F7019083F0
:10091000881F8827881FF801808360E081E80E9493
:10092000D10266E08FEF0E94D10283E80E942C037F
:10093000682F6B7F83E80E94D10261E08FEF0E94F5
:10094000D10261E080E00E94D10260E08FEF0E945E
:10095000D10260E080E80E94D102F1E0FD8320C076
:10096000E091B303F091B40381819281892B09F462
:10097000BECF0E94F21F69837A838B839C83E091B0
:10098000B303F091B4038481958129813A81281BB6
:10099000390BC901218132812817390708F0A7CF07
:1009A0008D810F900F900F900F900F90DF91CF914E
:1009B0001F910F91FF90EF900895CF92DF92EF92E9
:1009C000FF92CF93DF93CDB7DEB728970FB6F89499
:1009D000DEBF0FBECDBF9E838D83A62FB0E020E08B
:1009E0003FE24AE350E00E944421DC01CB018C50FD
:1009F0009E4FAF4FBF4F89839A83AB83BC8328EE52
:100A0000C22E23E0D22EE12CF12CBC01CD01A70196
:100A100096010E94F420AD81BE810E9444216D8325
:100A20007E838F83988769817A818B819C8120ED79
:100A300037E040E050E00E94F4208D819E81AF813C
:100A4000B885820F931FA41FB51FBC01CD01A7015C
:100A500096010E94F420CA01B90128960FB6F894B5
:100A6000DEBF0FBECDBFDF91CF91FF90EF90DF9043
:100A7000CF900895CF93DF93CDB7DEB728970FB609
:100A8000F894DEBF0FBECDBF6D837E838F839887C2
:100A9000A42FB0E020E03FE24AE350E00E9444216E
:100AA000DC01CB018C509E4FAF4FBF4F89839A839F
:100AB000AB83BC83A8EEB3E02D813E814F81588586
:100AC0000E9444216D837E838F83988769817A8118
:100AD0008B819C8120ED37E040E050E00E94F420C3
:100AE0008D819E81AF81B885820F931FA41FB51F92
:100AF0008D839E83AF83B88769817A818B819C8146
:100B000028EE33E040E050E00E94F4206D817E81C9
:100B10008F8198850E94F420CA01B90128960FB6EA
:100B2000F894DEBF0FBECDBFDF91CF910895CF9374
:100B3000DF9300D000D00F92CDB7DEB7682F616091
:100B400080E00E94D1020E94F21FE091B303F09175
:100B5000B4037583648383E10E942C0387708D83C3
:100B6000882359F061E08BE00E94D10260E080E0D0
:100B70000E94D10231E03D831EC0E091B303F091A9
:100B8000B40381819281892B31F30E94F21F698322
:100B90007A838B839C83E091B303F091B4038481C7
:100BA000958129813A81281B390BC9012181328124
:100BB0002817390780F68D810F900F900F900F90B6
:100BC0000F90DF91CF910895292F90E002C0880FF8
:100BD000991F2A95E2F7019608950F931F930097A6
:100BE00081F00197B0E0A0E050E040E08C019D0171
:100BF0000027012B022B032B39F4342F2227822BC1
:100C0000932B1F910F910895B695A795979587956A
:100C10004F5F5F4FEBCFCF93DF93EC0181E00E94FA
:100C20002C0384FB992790F9988383FB992790F9EB
:100C30009A8382FB992790F9998386FB992790F9EB
:100C40009B83881F8827881F8C83DF91CF9108950D
:100C5000CF93DF9300D000D0CDB7DEB7462F572F0C
:100C6000BC01411588EC580761057105E8F4DB010A
:100C7000CA0127E0880F991FAA1FBB1F2A95D1F729
:100C8000BC01CD0124E630E040E050E00E94F420B9
:100C9000B90184E40E94E80281E00F900F900F9068
:100CA0000F90DF91CF91089580E0F7CF811106C0BA
:100CB00080E50E942C038F5F880F0895813011F426
:100CC00080E7F7CF8FEF08950F931F93CF93DF93B4
:100CD0008C01EB0180E50E942C038F5F880F90E070
:100CE0009983888386E40E942C0390E001969D837B
:100CF0008C8368810E94DD046A877B878C879D874F
:100D000081E50E944D030E94E4058E839F836881E4
:100D10000E94DD046E877F87888B998B81E00E941B
:100D2000560690E09B838A8381E70E944D030E94D0
:100D3000E4059C0199878887D80113968C918823B4
:100D400031F08E819F81281B390B398728876A8172
:100D5000888599850E94DD046A8B7B8B8C8B9D8BAB
:100D6000DF91CF911F910F910895CF92DF92EF9273
:100D7000FF921F93CF93DF93CDB7DEB76F970FB678
:100D8000F894DEBF0FBECDBF6B017C0120E2C2161E
:100D90002EE4D206E104F10408F490C0CE01479697
:100DA0000E940B06BE016F5F7F4FCE0147960E94E7
:100DB00064068F89882309F46FC08B859C85AD8577
:100DC000BE858A5C944FAF4FBF4F298D222309F413
:100DD00068C04B855C856D857E854E545D4F6F4F39
:100DE0007F4F440F551F661F771F840F951FA61F47
:100DF000B71F1A8D112361F04F85588969897A8947
:100E00004C565D4F6F4F7F4F840F951FA61FB71F26
:100E10002B8D222391F18A5D9D4FAF4FBF4FC81696
:100E2000D906EA06FB0608F449C0A7019601281B6B
:100E3000390B4A0B5B0B2C8F3D8F4E8F5F8F4B8195
:100E40006C8D7D8D8E8D9F8D0E943A05462F572F7C
:100E5000CA01112321F08F819885840F951F0E946C
:100E6000ED05BC0181E70E94E802E091B303F09137
:100E7000B403C782D086E186F28681E06F960FB612
:100E8000F894DEBF0FBECDBFDF91CF911F91FF90D1
:100E9000EF90DF90CF90089588EE98E0A0E0B0E06A
:100EA00094CF288D222309F4A4CF4B855C856D85D2
:100EB0007E854C565D4F6F4F7F4F97CF80E0DECFE2
:100EC0000F931F93CF93DF93CDB7DEB76B970FB61A
:100ED000F894DEBF0FBECDBFCE0147960E940B0631
:100EE000BE016F5F7F4FCE0147960E9464068F89D7
:100EF000882309F44DC06B857C858D859E856C5754
:100F0000724F8F4F9F4F298D222309F446C00B85C6
:100F10001C852D853E850E541D4F2F4F3F4F000FD2
:100F2000111F221F331F600F711F821F931F2A8DF5
:100F3000222361F00F85188929893A890C561D4FA3
:100F40002F4F3F4F600F711F821F931F2B8D222346
:100F500061F00B891C892D893E890A5D1D4F2F4F39
:100F60003F4F600F711F821F931FE091B303F091F9
:100F7000B40367837087818792876B960FB6F89466
:100F8000DEBF0FBECDBFDF91CF911F910F910895AE
:100F900066E37BE080E090E0B6CF288D222339F233
:100FA0000B851C852D853E850C561D4F2F4F3F4FC1
:100FB000BACF0F931F93CF93DF93CDB7DEB72C97A4
:100FC0000FB6F894DEBF0FBECDBFE091B303F09132
:100FD000B40392E59083882341F089E80E942C03B2
:100FE000682F616089E80E94D10260E088E80E9471
:100FF000D10261E080E80E94D10261E08FEF0E949F
:10100000D10260E080E00E94D1020091B303109110
:10101000B40381E90E942C03D80116968C9361E0F9
:1010200080E00E94D10260E08FEF0E94D10260E078
:1010300080E80E94D10280E60E942C03682F626142
:1010400080E60E94D10270E060E084E40E94E80241
:101050006FEF81E00E94D102BE01695F7F4FCE0138
:1010600008960E94360481110CC080E02C960FB6C1
:10107000F894DEBF0FBECDBFDF91CF911F910F91CE
:10108000089546E0BE016F5F7F4F80EB0E94ED0345
:1010900061E08FEF0E94D10260E08FE40E94D102F4
:1010A0006CE28EE40E94D10260E08FEF0E94D102D8
:1010B00064EB86EB0E94D1029F8191119CE0B88580
:1010C00080E0A0E001E010E0482F46954695469567
:1010D00050E021E030E02C0F3D1F240F351FF901B7
:1010E0002081682F6770891710F0BA13A2C1E1E060
:1010F000F0E0EC0FFD1F4E0F5F1FF80102C0EE0F76
:10110000FF1F6A95E2F7BF0160952623FA0120834D
:101110008F5F8033C9F646E0BE016F5F7F4F80EB83
:101120000E94C70361E08FEF0E94D10260E080E07F
:101130000E94D10260E08FEF0E94D10260E089E05E
:101140000E94D10260E080E10E94D10260E081E172
:101150000E94D10261E084E20E94D1026FEF85E239
:101160000E94D10260E085E70E94D10261E08FEF2A
:101170000E94D1026CE28EE40E94D10260E088E419
:101180000E94D10260E280E30E94D10260E08FEF12
:101190000E94D10269E080E30E94D10260E084E510
:1011A0000E94D10264E081E30E94D10263E082E305
:1011B0000E94D10263E880E40E94D10265E286E4E5
:1011C0000E94D10260E080E60E94D10260E087E2E6
:1011D0000E94D10266E080E50E94D10260E081E5D4
:1011E0000E94D10266E982E50E94D10268E086E5AC
:1011F0000E94D10260E387E50E94D10260E081E6AF
:101200000E94D10260E082E60E94D10260E084E6A2
:101210000E94D10260E085E60E94D10260EA86E683
:101220000E94D10261E08FEF0E94D10262E382E26C
:101230000E94D10264E187E40E94D1026FEF89E449
:101240000E94D10260E08AE40E94D10260E08FEF48
:101250000E94D1026AE08AE70E94D10260E08BE737
:101260000E94D10261E288E70E94D10261E08FEF23
:101270000E94D10264E383E20E94D10260E082E432
:101280000E94D1026FEF84E40E94D10266E285E4FD
:101290000E94D10265E086E40E94D10260E480E40D
:1012A0000E94D10266E08EE00E94D1026AE180E2F3
:1012B0000E94D10260E483E40E94D10260E08FEFDB
:1012C0000E94D10263E084E30E94D10264E485E3DA
:1012D0000E94D10261E08FEF0E94D10264E081E3BD
:1012E0000E94D10269E08BE40E94D10265E08CE4A7
:1012F0000E94D10264E08DE40E94D10260E08FEF91
:101300000E94D10260E084E40E94D10260E285E4A0
:101310000E94D10268E087E40E94D10268E288E47A
:101320000E94D10260E087E60E94D10264E080E77B
:101330000E94D10261E081E70E94D1026EEF82E754
:101340000E94D10260E086E70E94D10260E087E758
:101350000E94D10261E08FEF0E94D10261E08DE036
:101360000E94D10260E08FEF0E94D10261E080E82C
:101370000E94D10268EF81E00E94D10261E08FEF0C
:101380000E94D10261E08EE80E94D10261E080E01B
:101390000E94D10260E08FEF0E94D10260E080E8FD
:1013A0000E94D10264E08AE00E94D10284E80E9497
:1013B0002C03682F6F7E84E80E94D10261E08BE0ED
:1013C0000E94D1020091B3031091B4030E94600700
:1013D000D80117966D937D938D939C931A9768EE21
:1013E00081E00E94D102E091B303F091B4038781C0
:1013F0009085A185B285BC01CD010E94B50661E052
:1014000081E00E94D10280E40E949705882309F4BC
:101410002CCE62E081E00E94D10280E00E9497051C
:10142000882309F422CE68EE81E00E94D10281E097
:101430001DCE30E002C0359527956A95E2F720FF72
:1014400067CEAF5F65CEFF920F931F93CF93DF936D
:10145000CDB7DEB76F970FB6F894DEBF0FBECDBF26
:10146000082F162FF62EF694FA94CE0147960E9476
:101470000B06BE016F5F7F4FCE0147960E94640648
:10148000011171C0103109F46CC098F41C3009F4DA
:1014900066C060E31E3081F0802F6F960FB6F8941F
:1014A000DEBF0FBECDBFDF91CF911F910F91FF9097
:1014B000089560E5123181F787E50E94D10268E066
:1014C00086E50E94D1026F2D80E50E94D1028F85B2
:1014D0009889A989BA898C8F9D8FAE8FBF8F412F34
:1014E000BC01CD010E943A05CB010E94ED05BC0173
:1014F00081E50E94E8028B859C85AD85BE858C8F39
:101500009D8FAE8FBF8F412FBC01CD010E943A0548
:10151000613091E0790710F060E071E0615086E49D
:101520000E94D102E091B303F091B40387819085CA
:10153000A185B285BC01CD010E94B50681E00E9463
:101540002C03182F62E081E00E94D10280E00E940B
:101550009705612F81E00E94D10201E09DCF68E1F3
:10156000ABCF60E4A9CF013049F41C3009F46CC062
:1015700038F41830A9F01A3009F450C000E08CCFCC
:101580001E30E1F768E488E40E94D10268E087E455
:101590000E94D10263E082E30E94D10267E04BC067
:1015A00060E188E40E94D10268E087E40E94D102F1
:1015B00062E082E30E94D1026CE080E30E94D102EB
:1015C00061E08FEF0E94D10260E380E30E94D102CC
:1015D00060E08FEF0E94D1026F2D80E70E94D10260
:1015E0008B899C89AD89BE898C8F9D8FAE8FBF8F73
:1015F000412FBC01CD010E943A05462F572FCA0149
:101600002A8D222321F08F819885840F951F0E94B7
:10161000ED05BC0181E70E94E80284CF68E288E41E
:101620000E94D10268E087E40E94D10263E082E375
:101630000E94D10269E080E30E94D10261E08FEF55
:101640000E94D10260E2C1CF68E388E40E94D10227
:1016500068E087E40E94D10263E082E30E94D10245
:1016600068E0E9CFCF92DF92EF92FF926B017C01AD
:1016700061E080E80E94D10261E08FEF0E94D10218
:1016800060E080E00E94D102E091B303F091B403E6
:10169000668181E90E94D10261E080E00E94D1026E
:1016A00060E08FEF0E94D10260E080E80E94D102EA
:1016B00062E0C114D104E104F10491F088EF0E94CA
:1016C0004D03DC01892B31F0A70196010E944421D2
:1016D0006B017C01B701A60184E00E94040364E071
:1016E00080E0FF90EF90DF90CF900C94D10261E00A
:1016F00080E00E94D10261E08FEF0E94D10260E0A1
:1017000080E00E94D10260E081E90E94D10261E0A4
:1017100080E00E94D10260E08FEF0C94D102EF9242
:10172000FF920F931F93CF93DF93CDB7DEB76097F0
:101730000FB6F894DEBF0FBECDBF7C010E94F21F32
:10174000E091B303F091B4037583648383E10E9455
:101750002C03877061F0E114F104C9F58EE10E9459
:101760004D038C0161E08BE00E94D10222C0E09128
:10177000B303F091B40381819281892B39F30E94E4
:10178000F21F6D877E878F87988BE091B303F0916E
:10179000B403848195812D853E85281B390BC901B1
:1017A000218132812817390788F681E083830FEF82
:1017B0001FEFC80160960FB6F894DEBF0FBECDBF15
:1017C000DF91CF911F910F91FF90EF9008954CE022
:1017D000BE016F5F7F4F84E10E94ED038981869592
:1017E00086958695F70180878B819C81982789272C
:1017F0009827978386838F819885982789279827AC
:101800009383828389859A8598278927982795834A
:1018100084830B851C8510270127102711830083E3
:10182000A1CFCF93DF9300D000D0CDB7DEB7E0914A
:10183000B303F091B40381819281892B31F10E942D
:10184000F21F69837A838B839C83E091B303F091C9
:10185000B4038481958129813A81281B390BC90100
:10186000218132812817390780F481E0838361E088
:101870008BE00E94D1020E94F21FE091B303F0912D
:10188000B4037583648380E007C083E10E942C0366
:10189000982F977081E0B9F30F900F900F900F90F1
:1018A000DF91CF910895CF93DF938EE10E944D0396
:1018B000D82FC92F61E08BE00E94D1020E94F21F55
:1018C000E091B303F091B403758364838D2F9C2F53
:1018D000DF91CF910895CF93DF9300D000D000D057
:1018E000CDB7DEB78E839D8361E080E80E94D10290
:1018F00061E08FEF0E94D10260E080E00E94D1029F
:10190000E091B303F091B403668181E90E94D102B2
:1019100061E080E00E94D10260E08FEF0E94D1027E
:1019200060E080E80E94D10261E080E00E94D10284
:101930000E94F21FE091B303F091B40375836483B6
:1019400080E00E942C0380FD0CC08E819D81269634
:101950000FB6F894DEBF0FBECDBFDF91CF910C94D0
:101960008F0BE091B303F091B40381819281892BB5
:1019700039F30E94F21F69837A838B839C83E09101
:10198000B303F091B4038481958129813A81281BA6
:10199000390BC901218132812817390788F681E086
:1019A00083838FEF9FEF26960FB6F894DEBF0FBEAE
:1019B000CDBFDF91CF910895E091B303F091B403CF
:1019C000838113820895E091B303F091B40392836D
:1019D00081830895E091B303F091B40381819281F2
:1019E00008959093B4038093B303089580914C03BA
:1019F00090914D03089580914A0390914B0308956F
:101A0000982F93709093400320914803309149039D
:101A1000409146035091470380FD09C030934D0328
:101A200020934C0350934B0340934A0308955093E3
:101A30004D0340934C0330934B0320934A03089586
:101A400098E790934F0380930103609300030895F8
:101A5000CF93C82F40914F03609101038091000301
:101A60000E94A32080E00E948A208C2F0E948A205E
:101A7000CF910C94AD20CF93C82F80934E036093E9
:101A80004F031092450310924403109243031092A7
:101A9000420381E0809341032FEF3FEF30933D03FA
:101AA00020933C0330933F0320933E038093B6037F
:101AB0001092B50380E890E0909349038093480327
:101AC00090934D0380934C0380E290E09093470302
:101AD0008093460390934B0380934A0382E0809364
:101AE00040038EEA0E94280D85ED0E94280D80E8B3
:101AF0000E94280D88EA0E94280D8FE10E94280D7F
:101B000083ED0E94280D80E00E94280D80E40E9451
:101B1000280D8DE80E94280D80E1C13009F084E194
:101B20000E94280D80E20E94280D80E00E94280D6E
:101B300081EA0E94280D88EC0E94280D8AED0E94FF
:101B4000280D82E00E94280D81E80E94280D8FE870
:101B50000E94280D89ED0E94280D82E2C13009F013
:101B600081EF0E94280D8BED0E94280D80E40E94D9
:101B7000280D84EA0E94280D86EA0E94280D8FEA2B
:101B8000CF910C94280D9C01CB01BA0137FD88C080
:101B900040914C0350914D03241735070CF080C041
:101BA00097FD7EC040914A0350914B0384179507DF
:101BB0000CF076C0409140034230C1F1433009F44B
:101BC00049C0413051F44091480350914903481BAA
:101BD000590BC9019A01215031096130710509F48D
:101BE00043C06230710509F45CC0672B09F058C02E
:101BF000FC0197FD379663E0F595E7956A95E1F767
:101C0000F695FE2FEE27F795E795E20FF31FE050CC
:101C1000FF4F9C012770332781E090E001C0880FBF
:101C20002A95EAF780959081892339C0409148032D
:101C300050914903FA01E21BF30B9F012150310936
:101C40004091460350914703FA01E81BF90BCF017D
:101C50000197C3CF4091460350914703421B530B5A
:101C60009C01CA010197B9CFFC0197FD3796A3E00B
:101C7000F595E795AA95E1F7F695FE2FEE27F795EE
:101C8000E795E20FF31FE050FF4F8770992721E09F
:101C900030E001C0220F8A95EAF78081822B808391
:101CA0000895FC0197FD379643E0F595E7954A9531
:101CB000E1F7F695FE2FEE27F795E795E20FF31F74
:101CC000E050FF4F8770992721E030E001C0220FDC
:101CD0008A95EAF780818227E2CF882319F087EA84
:101CE0000C94280D86EAFCCFCF93DF93D82FC62F14
:101CF00086E20E94280D80E00E94280D8D2F0E9410
:101D0000280D80E00E94280D8C2F0E94280D80E075
:101D10000E94280D8FEF0E94280D8FE2DF91CF9156
:101D20000C94280DCF93DF93D82FC62F87E20E9403
:101D3000280D80E00E94280D8D2F0E94280D80E044
:101D40000E94280D8C2F0E94280D80E00E94280DF3
:101D50008FEF0E94280D8FE2DF91CF910C94280D18
:101D6000CF93DF93D82FC62F83EA0E94280D80E0FF
:101D70000E94280D80E20E94280D89E20E94280D11
:101D800080E00E94280D8D2F0E94280D80E00E9487
:101D9000280D8C2F0E94280D81E00E94280D8FE2D3
:101DA000DF91CF910C94280DCF93DF93D82FC62FBE
:101DB00083EA0E94280D80E00E94280D80E20E94A4
:101DC000280D8AE20E94280D80E00E94280D8D2FA8
:101DD0000E94280D80E00E94280D8C2F0E94280D63
:101DE00081E00E94280D8FE2DF91CF910C94280DA5
:101DF0008EE20C94280DCF93C0E0811106C0809133
:101E00004E03CFEC813009F4CFE981E80E94280D20
:101E10008C2FCF910C94280DCF93C82F40914F0356
:101E200060910103809100030E94A32080E40E943E
:101E30008A208C2F0E948A20CF910C94AD20CF93C2
:101E4000DF9381E20E94280D80E00E94280D8FE739
:101E50000E94280D82E20E94280D80E00E94280D39
:101E600083E00E94280D40914F036091010380910F
:101E700000030E94A32080E40E948A2080914F03E7
:101E8000880F0E948A20C0E0D1E089910E948A20B8
:101E900083E0C030D807C9F7DF91CF910C94AD2013
:101EA000E0E0F1E080E092E0DF019C011D92215032
:101EB0003040E1F70895CF93DF93EC01DB01CA01D5
:101EC000A90177FD5AC0209146033091470362175C
:101ED00073070CF052C0BE01680F791FD7FF03C013
:101EE000CB01D0E0C0E02091480330914903261790
:101EF00037071CF4C9018C1B9D0B18161906ECF54D
:101F0000FD0123E0F595E7952A95E1F7F695FE2F7B
:101F1000EE27F795E795EC0FFD1FE050FF4FA770F8
:101F2000BB2721E030E001C0220FAA95EAF7622F1B
:101F300041305105E1F04230510571F0452BE9F493
:101F400020958E0F9F1F8E179F07B9F0DF013D91DF
:101F500032233083FD01F7CF8E0F9F1FE817F9075B
:101F600061F0DF012D9126272083FD01F7CF9F012E
:101F7000280F391FE217F30719F4DF91CF91089565
:101F8000DF019D91962B9083FD01F4CFFF920F937B
:101F90001F93CF93DF93EC01DB01BA01A90197FDF9
:101FA000A6C08091480390914903C817D9070CF047
:101FB0009EC09D01260F371FB7FF03C0B901B0E0D7
:101FC000A0E08091460390914703821793071CF489
:101FD000BC016A1B7B0B161617060CF088C0862FF7
:101FE0009A2F96959695969520E8929FF001112448
:101FF000EC0FFD1FE050FF4F3A2F3770F32E81F1A9
:1020000028E0231BC22FD0E08E01055F1C4FD801B2
:102010009C91621708F074C0C61BD1096FEF70E085
:1020200002C075956795CA95E2F796234130510530
:1020300061F04230510509F445C04115510509F0E0
:1020400056C090953081932302C03081932B9083AA
:10205000821708F44CC0A8EFAF0D8A0FE058FF4F6D
:102060008830E8F04230510581F5DF01982F2C913E
:1020700020952C93A058BF4F98509830C0F728EF68
:10208000280F26952695269530E02F5F3F4F3695F1
:10209000322F222737952795E20FF31F8770882369
:1020A00031F1A82FB0E0AD5FBC4F8C9141305105AC
:1020B000D9F04230510509F1452BC9F48095908142
:1020C000892314C030819327C2CF91E0413051055C
:1020D00009F090E09195DF01282F9C93A058BF4F05
:1020E00028502830D0F7CBCF9081892B8083DF9187
:1020F000CF911F910F91FF90089590818927F6CF7E
:102100004130510509F4A1CF42305105D9F24115B2
:10211000510509F0A0CF95CFDC01FB018091400370
:10212000823081F0833021F18130F1F480914803D5
:1021300090914903861B970BFC013197BD01CF019C
:102140000C94C60F8091480390914903BC016A1B0F
:102150007B0BDB0180914603909147038E1B9F0B05
:10216000FC013197A41BB50BBF01CD010C945B0F93
:1021700080914603909147038A1B9B0BDC01A41BB3
:10218000B50BDCCFDC01FB0180914003823089F08C
:10219000833021F18130F1F480914803909149031B
:1021A000861B970BFC01E41BF50BBD01CF010C94C2
:1021B0005B0F80914803909149038A1B9B0BDC01C4
:1021C00011978091460390914703861B970BFC0162
:1021D000E41BF50BBF01CD010C94C60F80914603A3
:1021E000909147038A1B9B0BDC011197DECF2F9246
:1021F0003F924F925F926F927F928F929F92AF9297
:10220000BF92CF92DF92EF92FF920F931F93CF93E3
:10221000DF9300D000D0CDB7DEB78C017B014B83BC
:102220005C83522E432E81E090E05C012B813C8147
:10223000A21AB30AC9019195819591099C01220FB7
:10224000331F3A8329836B817C816E0D7F1D452D61
:10225000542DC8010E94C30DB7018B819C81681B5E
:10226000790B452D542DC8010E94C30D452D542DC9
:10227000B7018B819C81800F911F0E94C30D452D5A
:10228000542DB701C8012B813C81821B930B0E9406
:10229000C30DD12CC12C8B819C81C816D906BCF0F2
:1022A0000F900F900F900F90DF91CF911F910F9192
:1022B000FF90EF90DF90CF90BF90AF909F908F9066
:1022C0007F906F905F904F903F902F900895B7FC54
:1022D0000DC08B819C8101979C838B8329813A81DE
:1022E0002E5F3F4F3A832983A20EB31E3FEFC31ADE
:1022F000D30AC601880F991F0196A80EB91E360190
:10230000600E711E452D542D8B809C808E0C9F1C61
:10231000B401C3010E94C30D18012C183D08452DBE
:10232000542DB401C1010E94C30D452D542D470108
:102330008B819C81881A990AB401C3010E94C30D44
:10234000452D542DB401C1010E94C30D46018E0CD0
:102350009F1C452D542DB4016B807C80600E711E36
:10236000C3010E94C30D452D542DB40118012B81CA
:102370003C81221A330AC1010E94C30D47018C1807
:102380009D08452D542DB401C3010E94C30D452D58
:10239000542DB401C1010E94C30D7DCF2F923F92F5
:1023A0004F925F926F927F928F929F92AF92BF9265
:1023B000CF92DF92EF92FF920F931F93CF93DF9311
:1023C0006C015B01EA0181E090E04C01841A950AFE
:1023D00066247724641A750A660C771CF12CE12CAC
:1023E000822F8470582E822F8270482E822F887000
:1023F000382E2170222EEC16FD069CF0DF91CF9135
:102400001F910F91FF90EF90DF90CF90BF90AF9012
:102410009F908F907F906F905F904F903F902F9004
:10242000089597FC06C0219782E0680E711C860C07
:10243000971C8FEFE81AF80AC701880F991F0196B9
:10244000880E991E552091F0A801BE016A0D7B1DD2
:10245000C6018E0D9F1D0E94C30DA801B5016E0D12
:102460007F1DCE018C0D9D1D0E94C30D442091F057
:10247000A801B5016C1B7D0BC6018E0D9F1D0E942E
:10248000C30DA801B5016E197F09CE018C0D9D1DEC
:102490000E94C30D332091F0A801B5016E0D7F1D80
:1024A000C6018C1B9D0B0E94C30DA801BE016A0DC5
:1024B0007B1DC6018E199F090E94C30D222009F4BD
:1024C0009ACFA801B5016E197F09C6018C1B9D0B1F
:1024D0000E94C30DA801B5016C1B7D0BC6018E19AE
:1024E0009F090E94C30D87CF2F923F924F925F9218
:1024F0006F927F928F929F92AF92BF92CF92DF9214
:10250000EF92FF920F931F93CF93DF9300D000D0F1
:10251000CDB7DEB72C015B014B835C83480181E0C2
:1025200090E06C014B815C81C41AD50A1A01319488
:1025300021943108220C331C10E000E066246394DF
:10254000712C522F5170598322702A834B815C81E8
:1025500004171507BCF00F900F900F900F90DF91AC
:10256000CF911F910F91FF90EF90DF90CF90BF9090
:10257000AF909F908F907F906F905F904F903F9023
:102580002F900895D7FC0AC08B819C8101979C8372
:102590008B8392E0290E311CC20CD31C0F5F1F4F9E
:1025A000E2E06E0E711CC60CD71CF981FF2301F10D
:1025B0004B815C81440F551F4F5F5F4F480D591D84
:1025C0009701B5018B819C81681B790BC201800F3B
:1025D000911F0E94C2109701A401460D571DB5011D
:1025E000601B710B8B819C81840D951D0E94C21014
:1025F0009A81992309F4AACF4B815C81440F551F1E
:102600004F5F5F4F480D591D9701B501EB81FC816C
:102610006E1B7F0BC201801B910B0E94C2109701A1
:10262000A301480D591DB501601B710BC201EB815F
:10263000FC818E1B9F0B0E94C21088CFAF92BF926D
:10264000CF92DF92EF92FF920F931F93CF93DF937E
:102650006C015B01EA017901440F551F4F5F5F4F29
:102660006C1B7D0BC6010E94C21010E000E023E04D
:10267000AE01B501C6010E947412DF91CF911F9186
:102680000F91FF90EF90DF90CF90BF90AF900895A3
:102690002F923F924F925F926F927F928F929F9272
:1026A000AF92BF92CF92DF92EF92FF920F931F9360
:1026B000CF93DF9300D000D0CDB7DEB78B839C8360
:1026C0007B016A01C90109831A838901061B170B63
:1026D00017FF03C011950195110946012B813C811B
:1026E000821A930A97FE03C09194819491088016F0
:1026F00091065CF43C2D2D2D6C01832F922F3B8194
:102700002C81FC82EB82E32EF22E2B813C81C216BF
:10271000D3065CF43E2D2F2D7C01832F922F3B811D
:102720002C81DC82CB82C32ED22E16012B813C81E0
:10273000221A330A2C014E185F0857FE03C0519429
:1027400041945108310137FE03C03FEF631A730A09
:1027500075946794E816F906D4F1AA24AA94BA2CC1
:102760002B813C81C216D306BCF40F900F900F90C2
:102770000F90DF91CF911F910F91FF90EF90DF901D
:10278000CF90BF90AF909F908F907F906F905F9011
:102790004F903F902F90089549815A816B817C81A1
:1027A000C701801691061CF0B7018B819C810E94A5
:1027B000C30D6418750877FE04C0EA0CFB1C620C9C
:1027C000731C8B819C8101969C838B83C9CFAA2427
:1027D000A394B12CC5CFAF92BF92CF92DF92EF926C
:1027E000FF920F931F93CF93DF93EC017B015A016C
:1027F000690198010E948C10B7016C0D7D1D61501C
:1028000071099801A501CE010E948C109801A601C2
:10281000B701CE010E94C210CE018A0D9B1D980106
:10282000A601B7010197DF91CF911F910F91FF9002
:10283000EF90DF90CF90BF90AF900C94C210AF920A
:10284000BF92CF92DF92EF92FF920F931F93CF939D
:10285000DF93D62EC72EB22EA32EEC017C01E40E00
:10286000F51ECE15DF055CF0DF91CF911F910F9122
:10287000FF90EF90DF90CF90BF90AF9008959801B8
:102880004B2D5A2D6D2D7C2DCE010E94C21021960C
:10289000E8CF0F931F938C0120914A0330914B0393
:1028A00040914C0350914D0370E060E090E080E077
:1028B0000E941F141F910F9108952F923F924F92E3
:1028C0005F926F927F928F929F92AF92BF92CF92C0
:1028D000DF92EF92FF920F931F93CF93DF9300D07D
:1028E00000D0CDB7DEB75C016B011A0129010B8363
:1028F0001C830B811C81000F111F3A01601A710AA1
:102900008B809C808A0C9B1C9701A301C4010E94B0
:102910008C10C601840D951D9A838983BC0161507A
:1029200071099701A301C4010E948C10401A510A39
:102930008B819C81C80ED91E9701A201B601C501E9
:102940000E94C210A20CB31C9701A201B601C501DE
:1029500001970E94C210870121E04B815C81B60182
:10296000C4010E94CE118B819C81A81AB90A91E002
:10297000A91AB10822E04B815C81B601C5010E9411
:10298000CE11C980DA808B819C81C81AD90A91E066
:10299000C91AD10824E04B815C81B601C5010E94AF
:1029A000CE1128E04B815C81B601C4010E94CE119A
:1029B0000F900F900F900F90DF91CF911F910F917B
:1029C000FF90EF90DF90CF90BF90AF909F908F904F
:1029D0007F906F905F904F903F902F9008952F922F
:1029E0003F924F925F926F927F928F929F92AF929F
:1029F000BF92CF92DF92EF92FF920F931F93CF93EC
:102A0000DF931C015B012A01E901680137017801AC
:102A1000EE0CFF1C4801820C931C4E195F098301C8
:102A2000C4010E941F14CE19DF092197AC0CBD1CF4
:102A3000420C531CC2018C199D0973018E0121E0C7
:102A4000A601B50101970E94741222E0A601B5010A
:102A5000C4010E947412DF91CF911F910F91FF90DA
:102A6000EF90DF90CF90BF90AF909F908F907F902E
:102A70006F905F904F903F902F9008954F925F928C
:102A80006F927F928F929F92AF92BF92CF92DF927E
:102A9000EF92FF920F931F93CF93DF935C014B0153
:102AA0003A012901D02FC12F86010E9448139701B6
:102AB0004D2F5C2FB201C3010E9448139401A50160
:102AC000B7018D2F9C2F0E944813DF91CF911F914A
:102AD0000F91FF90EF90DF90CF90BF90AF909F90BD
:102AE0008F907F906F905F904F9008952F923F92BC
:102AF0004F925F926F927F928F929F92AF92BF920E
:102B0000CF92DF92EF92FF920F931F93CF93DF93B9
:102B1000CDB7DEB7A8970FB6F894DEBF0FBECDBF16
:102B20005C016FA378A74A013901C80187012FA171
:102B300038A5621673060CF0BEC1E216F3060CF45B
:102B4000C9C13FA128A578A66FA2632E722E3A2D87
:102B50002B2D5401832E922E4FA158A540175107BB
:102B6000C9F58A149B042CF43A2D2B2D5401832E85
:102B7000922E8A159B052CF0881699060CF44C01B0
:102B8000C501A401481B590B4F5F5F4F96016FA110
:102B900078A5A8960FB6F894DEBF0FBECDBFDF9123
:102BA000CF911F910F91FF90EF90DF90CF90BF904A
:102BB000AF909F908F907F906F905F904F903F90DD
:102BC0002F900C948C10032F122F3A2D2B2D5C017B
:102BD000832F922F94012A193B09A3016FA178A595
:102BE000461B570BDC01AA19BB09BA87A987F80154
:102BF000E61BF70BFE8BED8BBC01681979097E870C
:102C00006D87C801861997099A8B898B130191E00A
:102C1000291A31080615170509F418014FA058A400
:102C20001D821E821F82188619821A821B821C82B4
:102C3000BA01550F880B990B6F8B788F898F9A8FFC
:102C40008D899E89092E000CAA0BBB0B8B8F9C8F44
:102C5000AD8FBE8FA901330F660B770B4F8F58A333
:102C600069A37AA369857A85072E000C880B990BD6
:102C70006BA37CA38DA39EA3241435040CF079C010
:102C8000C10101966FA178A5861797070CF4C0C003
:102C9000C101861B970B0196AFA1B8A5A80FB91F5C
:102CA000B88FAF8BAD0146195709ED85FE854E9F54
:102CB00090014F9F300D5E9F300D1124A901330FFD
:102CC000660B770B49835A836B837C8369857A858E
:102CD000689F9001699F300D789F300D1124C901C4
:102CE000330FAA0BBB0B8D839E83AF83B8872989D3
:102CF0003A89032E000C440B550B298B3A8B4B8BD6
:102D00005C8B4D895E892A01550F66087708BF01E3
:102D1000072E000C880B990B6D877E878F87988B09
:102D200089859A85092E000CAA0BBB0B89879A8787
:102D3000AB87BC87EF89F88D0E171F070CF06BC0AF
:102D4000A8960FB6F894DEBF0FBECDBFDF91CF912E
:102D50001F910F91FF90EF90DF90CF90BF90AF90B9
:102D60009F908F907F906F905F904F903F902F90AB
:102D7000089569817A818B819C812F89388D498D55
:102D80005A8D0E9416217501E20EF31E6D817E811F
:102D90008F8198852B8D3C8D4D8D5E8D0E941621E7
:102DA0002A0D3B1D89819A81AB81BC814F8D58A131
:102DB00069A17AA1840F951FA61FB71F89839A83E3
:102DC000AB83BC838D819E81AF81B8854BA15CA113
:102DD0006DA17EA1840F951FA61FB71F8D839E83B3
:102DE000AF83B8872E153F052CF49E2D8F2D7901CA
:102DF000292F382F2E193F09A9014F5F5F4F9601E8
:102E0000B201C7010E948C105FEF451A550A34CFFA
:102E100090E080E041CF69817A818B819C81298912
:102E20003A894B895C890E9416217401E20EF31ED7
:102E30006D817E818F819885A30192010E94162168
:102E40002A0D3B1D49815A816B817C818D859E8530
:102E5000AF85B889480F591F6A1F7B1F49835A8362
:102E60006B837C834D815E816F81788589859A85AE
:102E7000AB85BC85480F591F6A1F7B1F4D835E833E
:102E80006F8378872E153F052CF49E2D8F2D7901A9
:102E9000292F382F2E193F09A9014F5F5F4F960147
:102EA0006F89788DC7010E948C10AF89B88D1196FB
:102EB000B88FAF8B3FCFE614F7040CF04DCE3FA197
:102EC00028A578A66FA2632E722E3A2D2B2D5401C1
:102ED000832E922E3FA128A518A70FA3061517052C
:102EE0000CF471CE032F122F3A2D2B2D5C01832F62
:102EF000922F27CE2F923F924F925F926F927F92A6
:102F00008F929F92AF92BF92CF92DF92EF92FF92F9
:102F10000F931F93CF93DF9300D000D0CDB7DEB7D0
:102F20002C013A0169014801E982FA828B011901F9
:102F300027E0220E311C37FE04C016013EE0230EAE
:102F4000311C93E0359427949A95E1F7B12CA12C8C
:102F5000F12CE12CE814F9040CF44FC00F900F9001
:102F60000F900F90DF91CF911F910F91FF90EF90F5
:102F7000DF90CF90BF90AF909F908F907F906F9099
:102F80005F904F903F902F900895EB81FC8183E0FC
:102F9000F595E7958A95E1F7EA0DFB1DE60DF71D1E
:102FA000E4918B819C818770992720E830E002C0F2
:102FB000359527958A95E2F7C901F0E0E223F923D8
:102FC000EF2B49F049815A81B8018B819C81840D96
:102FD000951D0E94C30D8B819C8101969C838B83E0
:102FE0002B813C812C153D0584F23FEFE31AF30A57
:102FF0000F5F1F4FA20CB31CADCF1C821B82F0CF02
:103000002F923F924F925F926F927F928F929F92F8
:10301000AF92BF92CF92DF92EF92FF920F931F93E6
:10302000CF93DF9300D000D000D0CDB7DEB72C0116
:103030003A0159014801E982FA82CB82DC826D8330
:103040007E83190147E0240E311C37FE04C01901AC
:103050005EE0250E311C93E0359427949A95E1F7B4
:10306000D12CC12CF12CE12CE814F9040CF44FC044
:1030700026960FB6F894DEBF0FBECDBFDF91CF917D
:103080001F910F91FF90EF90DF90CF90BF90AF9086
:103090009F908F907F906F905F904F903F902F9078
:1030A0000895F80183E0F595E7958A95E1F7EC0D31
:1030B000FD1DE60DF71DE491C201800F911F9801DF
:1030C0002770332740E850E002C0559547952A9570
:1030D000E2F79A01F0E0E423F32349815A81EF2BD0
:1030E00011F44B815C816D817E810E94C30D0F5F65
:1030F0001F4F0A151B05ACF25FEFE51AF50A8D812B
:103100009E8101969E838D83C20CD31CADCF10E0AF
:1031100000E0EFCF2F923F924F925F926F927F929B
:103120008F929F92AF92BF92CF92DF92EF92FF92D7
:103130000F931F93CF93DF9300D000D0CDB7DEB7AE
:103140003C015A0169011801E982FA828B012901C7
:1031500087E0480E511C57FE04C029019EE0490E2D
:10316000511C93E0559447949A95E1F7912C812C4A
:10317000F12CE12CE214F3040CF44AC00F900F90F0
:103180000F900F90DF91CF911F910F91FF90EF90D3
:10319000DF90CF90BF90AF909F908F907F906F9077
:1031A0005F904F903F902F900895EB81FC8183E0DA
:1031B000F595E7958A95E1F7E80DF91DEA0DFB1DF8
:1031C000E491F0E08B819C818770992702C0F5958E
:1031D000E7958A95E2F7E0FF09C049815A81B80175
:1031E0008B819C81860D971D0E94C30D8B819C81D4
:1031F00001969C838B838B819C818C159D05ACF201
:103200009FEFE91AF90A0F5F1F4F840C951CB2CF8C
:103210001C821B82F0CF2F923F924F925F926F924F
:103220007F928F929F92AF92BF92CF92DF92EF9256
:10323000FF920F931F93CF93DF9300D000D000D065
:103240000F92CDB7DEB78E839F835B01190109838F
:103250001A8380914C0390914D03EE81FF81E81712
:10326000F9070CF067C080914A0390914B036817EF
:1032700079070CF05FC0CE2CD12CCF01F6E0EF9E89
:10328000800D911D1124181619060CF053C0C601AB
:1032900023E0880F991F2A95E1F7860F971F1816CC
:1032A00019060CF047C08091B503811103C0403B63
:1032B00008F04F5F25E0429FA0011124CA01885900
:1032C0009F4F9D838C834E805F801B829B81F12C5E
:1032D000953019F0EC81FD81F4903501912C812C11
:1032E000F0FE41C0F1E0A1018101EF1249C0B5013A
:1032F000680D791DC2010E94C30DF6948FEF881AE4
:10330000980A6C0C7D1C98E08916910449F7EB81B2
:10331000EF5FEB832E813F812C0D3D1D3F832E837C
:103320003FEF431A530A8C819D8101969D838C83C4
:10333000E63061F627960FB6F894DEBF0FBECDBF1C
:10334000DF91CF911F910F91FF90EF90DF90CF9081
:10335000BF90AF909F908F907F906F905F904F90B5
:103360003F902F90089529813A812215330529F243
:1033700031E009811A81E31203C049815A81B7CF34
:103380009601A601B3018E819F810E941F14B5CFC3
:10339000CF92DF92EF92FF920F931F93CF93DF9321
:1033A000482F8A30F9F48091410398E0899F900179
:1033B00011248091420390914303820F931F9093B5
:1033C000430380934203109245031092440381E02B
:1033D00090E0DF91CF911F910F91FF90EF90DF90E0
:1033E000CF9008958D3099F3F0904103C09042033F
:1033F000D0904303C0914403D091450300913C0316
:1034000010913D0320913E0330913F03EF2CB60114
:10341000CE010E940B196F2D70E086E0F89EC00D62
:10342000D11D1124D0934503C09344038091B6036A
:10343000882369F22AEF2603C001279F900D1124EB
:1034400020914C0330914D03820F931F8C179D07E1
:103450000CF0BDCF83E0660F771F8A95E1F76C0D06
:103460007D1D7093430360934203ADCF909345035A
:1034700080934403709343036093420308958091C3
:103480004403909145030895809142039091430332
:103490000895811101C081E08093410308958093D4
:1034A0003C0390933D0380933E0390933F03089524
:1034B00090933F0380933E0370933D0360933C03DE
:1034C00008958093B60308958091400308950C9465
:1034D000000D8093B5030895CF93DF93EC0189919C
:1034E000811103C0DF91CF9108950E94C819F7CFD1
:1034F0000E946C1A8AE00C94C819CF93DF93982F1E
:10350000D62FC42FE091B703F091B8038181933097
:1035100009F473C0B0F4913051F1923009F440C015
:1035200060E00E94F01DE091B703F091B80360E005
:1035300082810E94F01DE091B703F091B80360E032
:1035400026C0943009F462C0953051F761E00E94C2
:10355000F01DE091B703F091B80361E082810E9411
:10356000F01DE091B703F091B80361E029C061E07C
:103570000E94F01DE091B703F091B80360E08281F2
:103580000E94F01DE091B703F091B80361E08481DF
:103590000E94F01DE091B703F091B80360E018C0FD
:1035A00060E00E94F01DE091B703F091B80361E084
:1035B00082810E94F01DE091B703F091B80360E0B2
:1035C00084810E94F01DE091B703F091B80361E09F
:1035D00085810E94F01DE091B703F091B8036D2F33
:1035E00080810E94881EE091B703F091B8036C2F90
:1035F0008381DF91CF910C94881E61E00E94F01DC1
:10360000E091B703F091B80360E0D2CF60E00E9490
:10361000F01DE091B703F091B80361E0B0CFFC0179
:103620009093B8038093B70362E081810E94FA1EF1
:10363000E091B703F091B80362E082810E94FA1E24
:10364000E091B703F091B80363E080810E94FA1E15
:10365000E091B703F091B80362E084810E94FA1E02
:10366000E091B703F091B80362E085810E94FA1EF1
:10367000E091B703F091B80363E083810E94FA1EE2
:1036800040E060E080E00C947D1A1F93CF93DF93BD
:10369000D82F162FC42F62E0842F0E94FA1E60E0FC
:1036A0008C2F0E94F01D6AE070E080E090E00E94A4
:1036B000452061E08C2F0E94F01D6AE070E080E000
:1036C00090E00E944520612F8D2F0E94200D40E048
:1036D00068E782E0DF91CF911F910C943B0DEF9250
:1036E000FF920F931F93CF93DF93EC01862FF42E5D
:1036F000122F0E94491A8F2D90E00E944F1A602FBE
:1037000070E0812F90E00E94361A10E000E0FE0188
:1037100001900020E9F73197EC1BFD0B0E171F07F6
:1037200050F0EE2089F0DF91CF911F910F91FF9023
:10373000EF900C941F0FFE01E00FF11F80810E949B
:10374000C8190F5F1F4FE3CFDF91CF911F910F91EA
:10375000FF90EF9008950C94500F81E090E00C944E
:103760004914CF93DF93EC0162E088810E94FA1E36
:1037700060E089810E94FA1E60E08881DF91CF912C
:103780000C94F01D0F931F93CF93DF9300D000D0C4
:1037900000D0CDB7DEB78C016D837E8305960E9485
:1037A000F10C61E0D8018C910E94F01D81E00E9433
:1037B000D907AD81BE8114962D913D914D915C91BB
:1037C000179729833A834B835C83CA01B9010E940E
:1037D0002806ED81FE81618580E00E94230AAD818B
:1037E000BE8118966C9181E00E94230AED81FE81D2
:1037F00020813181A8EEB3E00E94352169837A836C
:103800008B839C830E94B506D80112968C910E94EE
:103810002204ED81FE81828193819C0150E040E091
:1038200029833A834B835C83CA01B90126960FB67C
:10383000F894DEBF0FBECDBFDF91CF911F910F91E6
:103840000C94320BCF93DF93EC0105960E94F10CA0
:103850000E94110C882321F00E94530C9C838B83BF
:103860008B819C81DF91CF91089561E00C94FA1EC9
:103870000C94DF1E982F862F692F0C94F01D62E0A8
:103880000C94FA1EFC018181808308950F931F938D
:10389000CF93DF93CDB7DEB72A970FB6F894DEBF8C
:1038A0000FBECDBF8AE090E0A0E0B0E08D839E83A4
:1038B000AF83B8873EE0398782E18A8744E650E0EB
:1038C0005A8349831C821B8290E5909364039FE096
:1038D000909362032FEF2093630393E1909372031D
:1038E0008093730341E5409376034CE04093740367
:1038F00020937503909384038093850342E540935E
:10390000880341E1409386032093870390939603B5
:103910008093970343E540939A0330939803209351
:1039200099039093A8038093A90382E693E00E94F1
:10393000B11B84E793E00E94B11B86E893E00E94EC
:10394000B11B88E993E00E94B11B02E613E0BE01BF
:103950006F5F7F4FC8010E94C21BC8010E94221CDA
:103960000E5E1F4F83E00A3A180789F72A960FB6B2
:10397000F894DEBF0FBECDBFDF91CF911F910F91A5
:10398000089582E693E00E94221C84E793E00E945F
:10399000221C86E893E00E94221C88E993E00C94A4
:1039A000221C80E10C94351C80E10E94381C9C0193
:1039B00080915A0390915B038217930769F03093CB
:1039C0005B0320935A036DE0253F314018F081E0FE
:1039D0000C943A1C80E0FCCF0895ECE5F3E085E020
:1039E000808382E0818384E0828386E0838388E031
:1039F000848387E08583CF010E940F1B40E060E055
:103A000080E00C947D1AEF920F930E94B1208DE01C
:103A10000E943F1C6DE081E00E943A1CE8E5F3E063
:103A200081E0808383E08183CF010E94421C0E9459
:103A3000ED1C4FEF62E183E10E94451B0E94AB1B2E
:103A4000EE24E3940AE02AE041E062E083E193E0BF
:103A50000E946F1B68EE73E080E090E00E944520BA
:103A60000E94461C0F91EF900C94D11C8F929F9254
:103A7000AF92BF92EF920F93CF93DF93CDB7DEB7A4
:103A800060970FB6F894DEBF0FBECDBF0E94C11C79
:103A90000E94D41C0E94F21F4B015C010E94AB1BD0
:103AA0008091540390915503A0915603B091570310
:103AB000A5019401281B390B4A0B5B0BDA01C901E4
:103AC000BF934F939F932F938CE193E09F938F939A
:103AD00041E050E04C0F5D1F5F934F930E944F21D8
:103AE000EE24E3940AE02AE041E061E0CE01019691
:103AF0000E946F1B8091500390915103A09152033B
:103B0000B0915303A5019401281B390B4A0B5B0BA1
:103B1000DA01C901BF934F939F932F9387E293E0FC
:103B20009F938F9341E050E04C0F5D1F5F934F9345
:103B30000E944F2104E12AE041E061E0CE010196BC
:103B40000E946F1B8092540390925503A0925603DB
:103B5000B09257030E94F21F609350037093510379
:103B600080935203909353030FB6F894DEBF0FBEB9
:103B7000CDBF60960FB6F894DEBF0FBECDBFDF910C
:103B8000CF910F91EF90BF90AF909F908F9008953D
:103B90000E94031D0E94361DFDCF08958350893079
:103BA00030F4E82FF0E0EE5CFC4F8081089582E174
:103BB0000895883030F08E3030F0863130F482E075
:103BC000089580E0089581E0089586E00895982F93
:103BD00096959695969528EF929F800D11240895BD
:103BE000CF93DF93C82FD62F8F3F09F10E94D91DA5
:103BF000813031F1823009F442C0811118C08C2F1C
:103C00008695869586952BB198EF899FC00D1124D6
:103C100081E090E0A0E0B0E004C0880F991FAA1FE7
:103C2000BB1FCA95D2F7DD2329F0822B8BB9DF9118
:103C3000CF91089580959095A095B0958223F6CF69
:103C40008C2F86958695869525B198EF899FC00D16
:103C5000112481E090E0A0E0B0E004C0880F991F3B
:103C6000AA1FBB1FCA95D2F7DD2319F0822B85B995
:103C7000DECF80959095A095B0958223F8CF8C2FBC
:103C800086958695869528B198EF899FC00D112459
:103C900081E090E0A0E0B0E004C0880F991FAA1F67
:103CA000BB1FCA95D2F7DD2319F0822B88B9BFCF8D
:103CB00080959095A095B0958223F8CFCF93C82F8B
:103CC0008F3F21F10E94D91D8130E1F08230E1F077
:103CD00081111CC099B18C2F86958695869528EF09
:103CE000829FC00D112441E050E060E070E004C00C
:103CF000440F551F661F771FCA95D2F79423892F4B
:103D0000CF91089593B1E7CF96B1E5CF90E0F7CF8B
:103D1000CF93DF93D82FC62F611106C060E08D2F9F
:103D2000DF91CF910C94F01D6F3F11F461E0F7CF5C
:103D30000E94CE1D833069F148F48130D1F0823089
:103D4000E9F0882379F0C7FFE9CFF0CF863061F141
:103D50008730C9F78091B00080628093B000C09333
:103D6000B40004C084B5806884BDC7BDDF91CF9125
:103D7000089584B5806284BDC8BDF8CF809180006D
:103D8000806880938000D0E0D0938900C093880041
:103D9000EDCF80918000806280938000D0E0D0934E
:103DA0008B00C0938A00E2CF8091B000806880933E
:103DB000B000C093B300DACF8093020308958E3031
:103DC00008F08E502091020390E4299F9001112465
:103DD0008770822B80937C0080917A00806480932E
:103DE0007A0080917A0086FDFCCF809178009091D6
:103DF00079000895CF93C82F8F3F31F0623030F0B3
:103E00006250623008F45BC0CF9108950E94D91DC2
:103E100081111BC02AB18C2F86958695869598EFC7
:103E2000899FC00D112481E090E0A0E0B0E004C0C3
:103E3000880F991FAA1FBB1FCA95D2F7809590952E
:103E4000A095B09582238AB9DFCF8130E9F0823026
:103E5000D9F627B18C2F86958695869598EF899F00
:103E6000C00D112481E090E0A0E0B0E004C0880F14
:103E7000991FAA1FBB1FCA95D2F780959095A09550
:103E8000B095822387B9C0CF24B18C2F86958695B3
:103E9000869598EF899FC00D112481E090E0A0E005
:103EA000B0E004C0880F991FAA1FBB1FCA95D2F7A4
:103EB00080959095A095B095822384B9A5CF0E9456
:103EC000D91D811116C02AB18C2F869586958695AD
:103ED00098EF899FC00D112481E090E0A0E0B0E050
:103EE00004C0880F991FAA1FBB1FCA95D2F7822B47
:103EF000AACF8130C9F0823009F086CF27B18C2F4C
:103F000086958695869598EF899FC00D112481E04E
:103F100090E0A0E0B0E004C0880F991FAA1FBB1F6B
:103F2000CA95D2F7822BAECF24B18C2F8695869579
:103F3000869598EF899FC00D112481E090E0A0E064
:103F4000B0E004C0880F991FAA1FBB1FCA95D2F703
:103F5000822BB3CF1F921FB61F9211242F933F9332
:103F60008F939F93AF93BF938091AB039091AC03DA
:103F7000A091AD03B091AE033091AA0323E0230FCB
:103F80002D3750F50196A11DB11D2093AA038093F2
:103F9000AB039093AC03A093AD03B093AE038091B9
:103FA000AF039091B003A091B103B091B203019619
:103FB000A11DB11D8093AF039093B003A093B103F3
:103FC000B093B203BF91AF919F918F913F912F9189
:103FD0001F901FBE1F90189526E8230F0296A11D63
:103FE000B11DD3CFCF93DF9300D000D0CDB7DEB7D4
:103FF0008FB7F8942091AB033091AC034091AD039F
:104000005091AE0329833A834B835C838FBF6981D0
:104010007A818B819C810F900F900F900F90DF9190
:10402000CF910895CF93DF9300D000D0CDB7DEB706
:104030003FB7F8948091AF039091B003A091B10382
:10404000B091B20326B5A89B05C02F3F19F0019689
:10405000A11DB11D3FBFBA2FA92F982F8827820F0E
:10406000911DA11DB11D9C01AD0162E0220F331F06
:10407000441F551F6A95D1F7CA01B9010F900F90DF
:104080000F900F90DF91CF9108958F929F92AF92F2
:10409000BF92CF92DF92EF92FF92CF93DF9300D047
:1040A00000D0CDB7DEB76B017C010E9412204B011E
:1040B0005C01C114D104E104F104C9F00E94122092
:1040C000DC01CB0188199909AA09BB09883E9340F4
:1040D000A105B10570F321E0C21AD108E108F10889
:1040E00088EE880E83E0981EA11CB11CE2CF0F90D1
:1040F0000F900F900F90DF91CF91FF90EF90DF9096
:10410000CF90BF90AF909F908F9008958091B9000D
:10411000887F08958093BB0084E88093BC008091E1
:10412000BC0087FFFCCF0895813019F484EC8093A4
:10413000BC0084E88093BC008091BC0087FFFCCF6A
:104140008091BB000895842F94EA9093BC009091D5
:10415000BC0097FFFCCF0C948A2084E98093BC00BC
:104160000895789484B5826084BD84B5816084BDEF
:1041700085B5826085BD85B5816085BDEEE6F0E0E0
:10418000808181608083E1E8F0E01082808182603C
:104190008083808181608083E0E8F0E080818160BD
:1041A0008083E1EBF0E0808184608083E0EBF0E0ED
:1041B000808181608083EAE7F0E080818460808391
:1041C000808182608083808181608083808180683B
:1041D00080831092C1001092B9008CE08093B800E7
:1041E00084E08093BC000895A1E21A2EAA1BBB1B99
:1041F000FD010DC0AA1FBB1FEE1FFF1FA217B307B3
:10420000E407F50720F0A21BB30BE40BF50B661FC8
:10421000771F881F991F1A9469F76095709580958C
:1042200090959B01AC01BD01CF010895052E97FB30
:104230001EF400940E942D2157FD07D00E94F42007
:1042400007FC03D04EF40C942D21509540953095E9
:1042500021953F4F4F4F5F4F0895909580957095F2
:1042600061957F4F8F4F9F4F0895A29FB001B39FDD
:10427000C001A39F700D811D1124911DB29F700D6F
:10428000811D1124911D08950E943521A59F900D37
:10429000B49F900DA49F800D911D11240895AEE050
:1042A000B0E0E5E5F1E20C94FC230D891E8986E07F
:1042B0008C831A8309838FEF9FE79E838D83AE01E2
:1042C000475E5F4F6F89788DCE0101960E94722103
:1042D0002F813885020F131FF80110822E96E4E01B
:1042E0000C941824AFE0B0E0E8E7F1E20C94EE2380
:1042F0007C013B018A01DC0117961C921E921697E5
:1043000013968C9181FFC3C19AE0292EFE0131964C
:104310004F01D70113969C91F30193FD859193FF73
:1043200081913F01882309F448C1853239F493FD16
:10433000859193FF81913F01853229F4B70190E087
:104340000E946023E6CFB12C412C512CBFE1B51562
:1043500038F08B3209F188F4803201F1833221F197
:1043600057FC3AC020ED280F2A3040F556FE1FC0FA
:10437000B29C200D1124B22E06C08D3291F08033F4
:1043800079F7689450F8F30193FD859193FF81913B
:104390003F018111DBCF20C0689451F8689452F836
:1043A000F2CF689453F8EFCF689454F8ECCF429C66
:1043B000200D1124422E689455F8E5CF8E3229F451
:1043C00056FCFBC0689456F8DECF8C3619F468941E
:1043D00057F8D9CF8836B9F2982F9F7D95549330EE
:1043E000C0F08336A1F18337C1F1833509F05BC09A
:1043F000D801CD90DD908D016B2D70E056FC02C090
:104400006FEF7FEFC6010E944A235C01689457F862
:104410000AC00C5F1F4FEFE3E983AA24A394B12CD9
:104420006401E89457F853FC04C04A141B0409F0D3
:1044300018F5342CA114B10431F5332009F469CFF7
:10444000B70180E290E00E9460233A94F6CFD80151
:104450008C9189830E5F1F4FE0CFF801C190D190FE
:104460008F016B2D70E056FC02C06FEF7FEFC6012D
:104470000E9455235C01D5CFB70180E290E00E94F5
:1044800060234A94D2CFF60157FC859157FE819163
:104490006F01B70190E00E94602331103A94B1E0BF
:1044A000AB1AB108C7CF843619F0893609F074C049
:1044B000F80157FE6AC061917191819191918F01CC
:1044C000E52DEF76DE2E97FF09C0909580957095CB
:1044D00061957F4F8F4F9F4F6894D7F82AE030E067
:1044E000A4010E949023C82EC818AC2C5D2CD6FEC7
:1044F0000CC0E89450F8CB1440F4D4FE05C0D2FCB4
:1045000003C05D2D5E7E552EAB2C54FE98C0FE017F
:10451000EC0DF11D8081803309F08AC0652D697E24
:10452000562E752D7870372E53FC98C050FE92C0D1
:10453000BC2CA41418F44C0CB42CBA1854FE94C01F
:10454000B70180E390E00E94602352FE09C088E733
:1045500090E051FE02C088E590E0B7010E94602320
:10456000CB1408F48DC0CA94D12C8FEFC81AD80A86
:10457000C80CD91CD6018E916D01B70190E00E9444
:1045800060238C149D04B1F758CF61917191072E6F
:10459000000C880B990B93CFD52CE894D4F82AE023
:1045A00030E0853739F1F52DF97FDF2E8037A9F01E
:1045B00058F48835A9F08F36D9F0F70186819781B4
:1045C0002F96E2E10C940A248837B9F7D4FE02C092
:1045D0006894D2F820E130E00DC06894D4F8F6CFAA
:1045E00054FE03C02F2F2660D22E20E132E002C0FD
:1045F00028E030E0F801D7FE15C04191519161915A
:1046000071914C875D876E877F878F01A4016C85D0
:104610007D858E859F850E949023C82EC818E894BA
:10462000D7F863CF81919191AC0170E060E0E9CF60
:1046300052FC02C0A39475CFA394A39472CF852D8E
:10464000867809F46ECFF6CFB70180E290E00E9441
:104650006023A394A414C0F3312C70CF342C3A18E7
:10466000A41408F46BCFF8CF852D867809F478CFA1
:104670008BE251FE80E257FC8DE2B70190E06ECFF5
:10468000B70180E390E00E946023BA9469CF8FEF76
:104690009FEF96CFFC010590615070400110D8F754
:1046A000809590958E0F9F1F0895FC01615070407A
:1046B00001900110D8F7809590958E0F9F1F089557
:1046C0000F931F93CF93DF93182F092FEB018B814B
:1046D00081FD09C01FEF0FEF812F902FDF91CF9148
:1046E0001F910F91089582FF14C02E813F818C810C
:1046F0009D81281739073CF4E881F981CF010196A3
:104700009983888310838E819F8101969F838E83F6
:10471000E3CFE885F985812F0995892BA1F3DACFBD
:10472000FA01AA27283051F1203181F1E8946F93E2
:104730006E7F6E5F7F4F8F4F9F4FAF4FB1E03ED088
:10474000B4E03CD0670F781F891F9A1FA11D680F26
:10475000791F8A1F911DA11D6A0F711D811D911D59
:10476000A11D20D009F468943F912AE0269F1124CE
:104770003019305D3193DEF6CF010895462F477032
:10478000405D4193B3E00FD0C9F7F6CF462F4F708D
:10479000405D4A3318F0495D31FD4052419302D0EB
:1047A000A9F7EACFB4E0A695979587957795679591
:1047B000BA95C9F700976105710508959B01AC0191
:1047C0000A2E06945795479537952795BA95C9F7B8
:1047D000620F731F841F951FA01D08952F923F9293
:1047E0004F925F926F927F928F929F92AF92BF9201
:1047F000CF92DF92EF92FF920F931F93CF93DF93AD
:10480000CDB7DEB7CA1BDB0B0FB6F894DEBF0FBE09
:10481000CDBF09942A88398848885F846E847D8456
:104820008C849B84AA84B984C884DF80EE80FD8058
:104830000C811B81AA81B981CE0FD11D0FB6F894CE
:0E484000DEBF0FBECDBFED010895F894FFCF8F
:10484E00000000000000000000000000000000005A
:10485E00000000000000000000000000000000004A
:10486E00000000000000000000000000000000003A
:10487E0000000000000000000000000000000080AA
:10488E00808000000000000000000000000000001A
:10489E00008080C0C000000000000000000000008A
:1048AE0000000000000000000000000000000000FA
:1048BE0000000000000000000000000000000000EA
:1048CE0000000000000000000000000000000000DA
:1048DE000000000080C0E0F0F8FCF8E000000000EE
:1048EE00000000000000000000000000008080803A
:1048FE00808000808000000000808080808000FF2B
:10490E00FFFF00000000808080800000808000009B
:10491E0080FFFF808000808000808080800080800B
:10492E000000000000808000008C8E84000080F863
:10493E00F8F88000000000000000000000000000F9
:10494E00F0F0F0F0F0F0F0F0F0F0F0F0E0E0C08019
:10495E0000E0FCFEFFFFFF7FFFFFFFFFFF000000F8
:10496E000000000000000000000000FEFFC7010173
:10497E00010183FFFF00007CFEC70101010183FFDF
:10498E00FFFF0038FEC78301010183C7FFFF000050
:10499E0001FFFF010100FFFF0701010100007FFF82
:1049AE0080000000FFFF7F0000FFFFFF000001FFFF
:1049BE00FFFF0100000000000000000000000000EA
:1049CE00030F3F7F7FFFFFFFFFFFFFFFE7C7C78F8D
:1049DE008F9FBFFFFFC3C0F0FFFFFFFFFFFCFCFC7C
:1049EE00FCFCFCFCFCF8F8F0F0E0C0000103030353
:1049FE00030301030300000000010303030301018D
:104A0E00030100000001030303030101030300007F
:104A1E00000303000000030300000000000000017B
:104A2E000303030303010000000103010000000360
:104A3E000301000000000000000000000000000064
:104A4E00FEFE01000103070F1F3F7F0080C0E0F054
:104A5E00F8FCFE574149545F315F5300543A256CC0
:104A6E0075206D73202000443A256C75206D7320DF
:0C4A7E00200007120100121202030600C3
:00000001FF
